:020000040800F2
:100000003808002089010008A3270008C120000843
:10001000A127000865030008D12F00080000000098
:100020000000000000000000000000004F2A00084F
:1000300091030008000000004D2A0008512A000822
:10004000A3010008A3010008A3010008A301000800
:10005000A3010008A3010008A3010008A3010008F0
:10006000A3010008A3010008A3010008A3010008E0
:10007000A3010008A3010008A3010008A3010008D0
:10008000A3010008A3010008A3010008A3010008C0
:10009000A3010008A3010008A3010008A3010008B0
:1000A000A3010008CD2A0008A3010008A30100084D
:1000B000A3010008A3010008A3010008A301000890
:1000C000A3010008A3010008A3010008A301000880
:1000D000A3010008C52F0008A3010008A301000820
:1000E000A3010008A3010008A301000800F002F822
:1000F00000F03AF80AA090E8000C82448344AAF188
:100100000107DA4501D100F02FF8AFF2090EBAE885
:100110000F0013F0010F18BFFB1A43F0010318473B
:10012000385A0000585A0000103A24BF78C878C1E5
:10013000FAD8520724BF30C830C144BF04680C60ED
:10014000704700000023002400250026103A28BF35
:1001500078C1FBD8520728BF30C148BF0B60704739
:100160001FB51FBD10B510BD00F058F81146FFF7C0
:10017000F7FF02F047FF00F076F803B4FFF7F2FF55
:1001800003BC00F07DF8000009488047094800479B
:10019000FEE7FEE7FEE7FEE7FEE7FEE7FEE7FEE737
:1001A000FEE7FEE704480549054A064B7047000094
:1001B000CB2A0008ED000008380200203808002093
:1001C00038040020380400204FF0000200B5134628
:1001D00094469646203922BFA0E80C50A0E80C5067
:1001E000B1F12001BFF4F7AF090728BFA0E80C5018
:1001F00048BF0CC05DF804EB890028BF40F8042B11
:1002000008BF704748BF20F8022B11F0804F18BF7D
:1002100000F8012B7047704770477047754600F033
:100220002BF8AE4605006946534620F00700854688
:1002300018B020B5FFF7B6FFBDE820404FF000062C
:100240004FF000074FF000084FF0000B21F00701BE
:10025000AC46ACE8C009ACE8C009ACE8C009ACE801
:10026000C0098D46704710B50446AFF300802046A4
:10027000BDE81040FFF781BF00487047D80100205B
:1002800001491820ABBEFEE72600020070470000BF
:1002900070B5044600688168C943C90717D18168F1
:1002A00021F00101816000F035FC05460AE000BF45
:1002B00000F030FC401B022804D920688068C0434D
:1002C000C00706D020688068C043C007F0D0002077
:1002D00070BDA06A40F01000A062E06A40F001002A
:1002E000E062012070BD0000F8B5002604460096CB
:1002F00000688168C943C9072DD0816841F00101B8
:100300008160164816490068B0FBF1F000E0401E1D
:1003100000900028FBD100F0FDFB054616E000BF71
:1003200000F0F8FB401B022810D920688068C04309
:10033000C0070BD0A06A40F01000A062E06A40F055
:100340000100E06284F824600120F8BD2068806824
:10035000C043C007E4D10020F8BD000048000020E1
:1003600040420F00FEE7000010B50021074B07E0F8
:100370005C5C491C401CC9B2944201D0002010BDF5
:100380000278002AF4D1012010BD0000B80100203D
:10039000704772B6FEE70000F8B50024009490F8AC
:1003A00024202546012A12D0012280F824204A6800
:1003B0001F23072A0DD20668776B521E02EB8202BA
:1003C00093409F430B6893401F43776319E00220DB
:1003D000F8BD06680D2A0AD2376BD21F02EB8202E3
:1003E00093409F430B6893401F43376309E0F76ACC
:1003F0000D3A02EB820293409F430B6893401F43E8
:10040000F7620A68072306680A2A0AD3F7680A3AD5
:1004100002EB420293409F438B6893401F43F76077
:1004200008E0376902EB420293409F438B68934098
:100430001F4337610A68102A01D0112A20D1124BBC
:1004400002689A4217D193681B0219D4936843F447
:10045000000393600968102912D10C490C4A0968FD
:10046000B1FBF2F101EB8101490000E0491E00916E
:100470000029FBD104E0816A41F02001816201245E
:1004800080F824502046F8BD002401404800002098
:1004900040420F000068C06C704700002DE9F04139
:1004A0004FF0000704003D467ED0A06A002628B920
:1004B000E66284F82460204600F07EF82046FFF7CC
:1004C000E7FEA16AC90600D420B1A06A40F010007E
:1004D000A06269E0A16A21F4885141F00201A162A1
:1004E0006268E169237B0A4347EA43010A43A16842
:1004F0004FF48077B94209D0012907D05FF000019D
:1005000094F814C0BCF1010F02D00AE03946F7E7B5
:10051000F3B1A36A43F02003A362E36A43F001034B
:10052000E3622368D3F804C02CF4694C4CEA010C54
:10053000C3F804C021688B68DFF870C003EA0C03BD
:1005400013438B60A168B9420BD0012909D00CE09C
:10055000DFF85CC0A3690CEB43330B4343F4006149
:10056000DFE7218A0D05A5F580152168CB6A23F404
:1005700070032B43CB62216889680E4B194091426E
:1005800008D1E662A16A21F0020141F00101A162F5
:10059000BDE8F081A06A20F0020040F01000A062E7
:1005A000E06A40F00100E0620120F1E7FDF7E1FFC1
:1005B00000E0FFFFFE0E1FFF00B585B00021009197
:1005C00001910291039100680E49884218D10E48AA
:1005D000816941F400718161816901F400710491C4
:1005E000816941F0080181618069694600F0080075
:1005F00004900220009003200190044800F090F93C
:1006000005B000BD0024014000100240000C014074
:100610002DE9F84300270D460446009700F07AFACA
:10062000804620688168C90508D5A06A40F020008E
:10063000A06284F824700120BDE8F8834168C905F0
:1006400003D4C06A10F4700F2AD0022000F08CFC92
:100650003B490968B1FBF0F62068036939490B4250
:100660004FEA61014FEAA1121FD1C3684FEA611C32
:1006700013EA0C0F19D103690B4225D1C06810424F
:1006800022D1142023E0681C0AD02DB100F042FAD8
:10069000A0EB0800A84203D920680068800725D590
:1006A000206800688007EED52DE003690B4202D177
:1006B000C168114206D0026923490A4206D1C068C6
:1006C000084203D1542002E0292000E0FC204643E8
:1006D000009816E0681C11D02DB100F01BFAA0EBB9
:1006E0000800A8420AD90098B04207D2A06A40F098
:1006F0000400A06284F8247003209DE70098401C49
:100700000090B042E6D321686FF012000860A06A42
:1007100040F40070A06220688068C0F3424007285F
:100720000CD1207B50B9A06A20F48070A062A06A2E
:10073000C00403D4A06A40F00100A06200207BE75F
:1007400048000020244992244992240070B50446B0
:1007500090F8240001280DD0012084F824002046C0
:10076000FFF7C2FD02004FF0000005D084F824001E
:10077000104670BD022070BDA16A40F2012399436A
:1007800041F48071A1621F4D23681F49AB4218D10B
:100790000E6816F4702F14D0A66A46F48016A6626E
:1007A0000E68760505D5A66A26F4005646F48056EE
:1007B000A662A66AF6040AD5E66A26F00606E6628E
:1007C00006E0A66A26F48016A6625E68E9E7E062A3
:1007D00084F824006FF00200186020688368C3F377
:1007E0004243072B05D1A84208D1096811F4702FA4
:1007F00004D0816841F480118160B9E7816841F4D7
:10080000A001F9E7002801400424014010B590F848
:1008100021100022022905D00421816380F82020C4
:10082000012010BD01680B6823F00E030B60016806
:100830000B6823F001030B6090F84030C46B01217A
:1008400001FA03F3636080F8211080F8202010463D
:1008500010BD000010B590F821100024022903D02B
:100860000421816301243DE001680A6822F00E0240
:100870000A6001680A6822F001020A601A4A0168E7
:10088000914201D1012121E0174A1432914201D154
:1008900010211BE0144A2832914201D1891515E03C
:1008A000114A3C32914201D189140FE00E4A503274
:1008B000914202D14FF4803108E00B4A64329142F8
:1008C00002D14FF4801101E04FF08071064A083ADE
:1008D0005160012180F82110002180F82010416B27
:1008E00001B18847204610BD0800024070B504469B
:1008F00000F010F90546601C02D00448007804445A
:1009000000F008F9401BA042FAD370BD3C00002063
:10091000002804D00020401C80B24828FBD3704738
:100920002DE9F84FDFF8B8910024A9F1040B234614
:100930000F2709F1040AABF1040EC9E00125A54017
:100940002A40AA427DD1674ED1F804C0ACEB06081C
:10095000B44532D014DCBCF1030F3AD009DCBCF151
:10096000000F2AD0BCF1010F1CD0BCF1020F31D115
:100970001DE0BCF1110F17D0BCF1120F2AD119E004
:10098000B8F5881F19D006DCB8F5803F15D0B8F54A
:10099000801F1FD111E0B8F5001F0ED0B8F5041F5D
:1009A00018D10AE0CB6815E0CB681B1D12E0CB68BC
:1009B00008330FE0CB680C330CE08B682BB1012BB4
:1009C0004FF0080303D0456104E0042302E0056111
:1009D00000E00023FF2A01D8064601E000F10406EA
:1009E0004FEA840501D9A5F12005D6F8008007FA61
:1009F00005FC28EA0C0803FA05F548EA0508C6F8DC
:100A000000804D68ED0062D5374DAE6946F00106B5
:100A1000AE61AD6924F0030605F001050095334D84
:100A200006EB050CDCF80850A607360F07FA06F8A7
:100A300025EA0805DFF8B880404503D14FF00008EB
:100A400017E044E0DFF8AC80404502D14FF00108E8
:100A50000FE0DFF8A480404502D14FF0020808E023
:100A6000DFF89880404502D14FF0030801E04FF0D5
:100A7000040808FA06F848EA0508CCF808804D682A
:100A8000D9F80060ED024D4601D5164300E09643CB
:100A90002E604D68DAF80060AD02554601D5164368
:100AA00000E096432E604D68DBF80060AD035D46C4
:100AB00001D5164300E096432E604D68DEF80060D5
:100AC000ED03754601D5164300E096432E60641C85
:100AD0000D682A46E5407FF431AFBDE8F88F00008D
:100AE0000804014000001110001002400000014005
:100AF00000080140000C01400010014000140140BA
:100B00008068084000D0012070470AB10161704739
:100B10000904FBE701488068704700003C000020A2
:100B200070B5040025D094F83D00002520B984F864
:100B30003C50204600F050F9242084F83D00206805
:100B4000016821F0010101602068016841F4004161
:100B500001602068016821F40041016000F062FB3F
:100B60004D4A6168914201D84C4900E04C498842A5
:100B700001D2012070BD4B492368B0FBF1F15E68E2
:100B800026F03F060E435E606368934206D94FF439
:100B9000967359434FF47A73B1FBF3F12368491C00
:100BA0001E6A26F03F06314319626168914210D8EF
:100BB0004900401EB0FBF1F2521CC2F30B02042AA2
:100BC00001D2042022E0B0FBF1F0401CC0F30B0086
:100BD0001CE0A268F2B301EBC10303EB0116431E54
:100BE000B3FBF6F35B1C43F480431B0549D092B37F
:100BF00001EBC10202EB0111401EB0FBF1F0401C01
:100C0000C0F30B0040F4804040F400402168CA6902
:100C10004CF6FF739A431043C861D4E907100143AF
:100C20002068026822F0C00211430160D4E9030188
:100C300001432068826848F2FF339A431143816080
:100C4000D4E9050108432168CA6822F0FF02104375
:100C5000C86001E00EE016E02068016841F0010183
:100C600001602564202084F83D00256384F83E500F
:100C7000002070BD01EB4106431EB3FBF6F35B1C85
:100C8000B3E70120C2E701EB4101401EB0FBF1F0E8
:100C9000401CC0F30B00B7E7A086010080841E0053
:100CA00000093D0040420F002DE9FF4F83B09A46F6
:100CB000DDE9119793460446DDF84080FFF72AFFEF
:100CC000054694F83D0020287FD119230122404990
:100CD0002046009501F08CFA002876D194F83C006B
:100CE000012872D0012084F83C0020680168C907FF
:100CF00003D1016841F0010101602068016821F41D
:100D000000610160212084F83D00402084F83E000D
:100D100000262664C4F82480A4F82A90608D2085DB
:100D20002C48E062CDE9007553465A4620460499A6
:100D300001F0DEF970B930E02A463946204601F06C
:100D4000FDFA58B1206C042804D12068016841F4F0
:100D500000710160012007B0BDE8F08F606A216872
:100D600000780861606A401C6062218D491E89B26A
:100D70002185628D521E628522685369DB435B07C1
:100D80000BD469B100781061606A401C6062208DEC
:100D9000401E2085608D401E6085208D0028CBD1AF
:100DA0002A463946204601F0F7F90028CAD154F8FE
:100DB0003D0B016841F400710160202004F81E0918
:100DC000E67766770020C6E7FFE70220C3E700006A
:100DD000020010000000FFFF10B586B00021009156
:100DE0000191029103910068104988421BD1104C77
:100DF000A06940F00800A061A069694600F0080001
:100E000004904FF440600090122001900320039062
:100E10000848FFF785FDE06940F48000E061E06983
:100E200000F48000049006B010BD0000005800409F
:100E300000100240000C0140024881680278114411
:100E4000816070473C000020074810B5016841F000
:100E500010010160032000F075F80F2000F006F883
:100E600000F024F8002010BD0020024070B50D4DA8
:100E700004464FF47A712878B1FBF0F00A4909680A
:100E8000B1FBF0F000F0A4FB48B9102C07D200220F
:100E90002146501E00F036F800206C6070BD012025
:100EA00070BD00003C000020480000200C4808B540
:100EB000816941F001018161816901F001010091C5
:100EC000C16941F08051C161C06900F0805000905B
:100ED0000448416821F0E06141F00071416008BDC3
:100EE0000010024000000140002809DB00F01F0252
:100EF000012191404009800000F1E020C0F800117C
:100F000070470000F0B40E4B1B680C46C3F302237D
:100F1000C3F10705042D00D90425191D072901D2A5
:100F2000002300E0DB1E012606FA05F1491E2140E0
:100F300099409E40761E16403143F0BC02F049B8FD
:100F40000CED00E0064900F0070208684FF6FF03C9
:100F5000184040EA0220034A10430860704700002E
:100F60000CED00E00000FA0510B501460020234C0E
:100F7000012922D0022939D010291DD161682268A7
:100F8000D20119D51E48C1F38342C903805C0AD53A
:100F900061681B4AC1F34041921E515C194AB2FB81
:100FA000F1F1484301E0184948436168490203D41C
:100FB00040000321B0FBF1F010BD226AC2F3012111
:100FC000012903D1920701D5C80310BD022905D11B
:100FD000626A920702D549F6404010BD0329FCD150
:100FE00021688903F9D54FF2244010BD00F02AF999
:100FF0006168C1F38131491C4900DBE70010024000
:10100000305B000800127A0000093D002DE9F8432A
:1010100005460078354CC00754D0E0690026C00072
:1010200008D4E06940F08050E061E069012600F0FA
:10103000805000902E480168C90512D4016880468E
:1010400041F480710160FFF765FD074605E000BFD0
:10105000FFF760FDC01B642823D8D8F80000C00546
:10106000F6D5206A10F4407021D0A98801F44071AF
:1010700081421CD0206A1F49012220F440700A607E
:1010800000220A602062C00711D0FFF743FD074627
:1010900041F2883808E000BFFFF73CFDC11B414525
:1010A00002D90320BDE8F883206A8007F4D5206ABE
:1010B000696820F44070084320621EB1E06920F0A6
:1010C0008050E0612878800705D56068A96820F421
:1010D0004040084360602878C00605D56068E9682C
:1010E00020F48000084360600020DBE7001002402D
:1010F00000700040400442422DE9F0470F460500D1
:1011000061D0434E306800F00700B84209D2306821
:1011100020F0070038433060306800F00700B84224
:1011200051D128683B4C810712D5400703D5606830
:1011300040F4E06060602878000703D5606840F400
:10114000605060606068A96820F0F000084360604B
:101150002878C00728D06868012810D021680228A4
:1011600010D0890700292EDA616821F003010143BC
:101170006160FFF7CFFC804641F288390DE02168BD
:101180008903EFE78901EDE7FFF7C4FCA0EB080155
:10119000494502D90320BDE8F0876068696800F01E
:1011A0000C00B0EB810FEFD1306800F00700B842BF
:1011B0000BD9306820F0070038433060306800F009
:1011C0000700B84201D00120E5E72878400705D59F
:1011D0006068E96820F4E0600843606028780007F0
:1011E00006D56068296920F4605040EAC10060605B
:1011F00000F038F86168084AC1F30311515CC84037
:101200000649086006480068FFF730FE0020C2E784
:101210000020024000100240405B0008480000200F
:10122000400000200448054900684968044AC1F3A9
:101230000221515CC8407047480000200010024065
:10124000505B00080448054900684968044AC1F336
:10125000C221515CC8407047480000200010024085
:10126000505B00080E4A51680E4801F00C03042B35
:1012700011D0082B0FD10C48C1F38343C903C05CC4
:101280000AD55168084AC1F34041921E515C054A93
:101290005043B0FBF1F070470449484370470000E9
:1012A0000010024000127A001E5B000800093D0099
:1012B0002DE9F84F040070D02078C04DC00749D008
:1012C0006868C0F38100012807D06868C0F3810016
:1012D000022809D16868C00306D52868800339D57B
:1012E00060680028E7D035E06068B0F5803F0BD03B
:1012F00010B1B0F5A02F11D0286820F480302860FC
:10130000286820F4802002E0286840F480302860BB
:10131000606890B1FFF7FEFB06460AE0286840F4DB
:1013200080202860F0E700BFFFF7F4FB801B6428F3
:1013300073D828688003F7D50CE0FFF7EBFB06466F
:1013400005E000BFFFF7E6FB801B6428F0D82868A3
:101350008003F7D420789A4E80074FF001094FF0B0
:10136000000839D5686810F00C0F07D06868C0F322
:101370008100022809D16868C00306D42868800764
:1013800014D52069012808D110E02069B0B1C6F851
:101390000090FFF7BFFB074605E00AE1FFF7BAFB45
:1013A000C01B0228C4D828688007F7D5286861695F
:1013B00020F0F80040EAC10028600DE0C6F8008087
:1013C000FFF7A8FB074604E0FFF7A4FBC01B0228B9
:1013D00023D828688007F7D4207800072CD57948CF
:1013E000A169D9B1C0F80090FFF794FB074604E06B
:1013F000FFF790FBC01B02280FD8686A8007F7D55B
:1014000071484FF4FA510068B0FBF1F0009000BF52
:101410000098411E0091FAD20EE080E0C0F80080F2
:10142000FFF778FB074604E0FFF774FBC01B0228B8
:1014300075D8686A8007F7D42078400760D5E869D6
:101440000027C00008D4E86940F08050E861E869EE
:10145000012700F0805000905C480168C90513D452
:101460000168834641F480710160FFF753FB8246B7
:1014700006E000BFFFF74EFBA0EB0A0064284ED841
:10148000DBF80000C005F5D5E06801280AD008B1F6
:10149000052813D0286A20F001002862286A20F06D
:1014A000040002E0286A40F001002862E06841F28E
:1014B000883B98B1FFF72EFB82460BE0286A40F08C
:1014C00004002862EEE700BFFFF724FBA0EB0A014F
:1014D00059455AD8286A8007F6D50CE0FFF71AFB61
:1014E000824605E0FFF716FBA0EB0A0159454CD8F0
:1014F000286A8007F6D41FB1E86920F08050E861BF
:10150000E06988B36968C1F38101022944D00228E7
:10151000C6F8608004D0FFF7FDFA044638E034E0F6
:10152000FFF7F8FA074604E0FFF7F4FAC01B0228B9
:101530002BD828688001F7D4206AB0F5803F05D108
:101540006868A16820F4003008436860D4E90801A5
:101550000843696821F4741108436860C6F8609014
:10156000FFF7D8FA044606E025E000BFFFF7D2FAFD
:10157000001B022809D828688001F7D51BE000BFAE
:10158000FFF7C8FA001B022802D90320BDE8F88F34
:1015900028688001F4D40EE00128F7D06868226A38
:1015A00000F48031914204D1616A00F470108842E5
:1015B00001D00120EAE70020E8E700000010024027
:1015C0000000424280044242480000200070004077
:1015D00010B5401EB0F1807F01D3012010BD4FF047
:1015E000E02460610F21601701F0F3FC0020A0618E
:1015F00007202061002010BD7047704770B590F83B
:101600003C20012A26D0012480F83C40022280F8A8
:101610003D2003685A689D6822F070060A683243CC
:101620005A600D4B02689A4208D0B2F1804F05D043
:101630000A4B9A4202D00A4B9A4204D1496825F0DB
:1016400080031943916080F83D40002180F83C10F0
:10165000084670BD022070BD002C0140000400400F
:101660000008004010B5040003D094F83D0010B10C
:1016700007E0012010BD002084F83C00204600F067
:101680001FF8022084F83D00211D206801F024FA93
:10169000012084F8460084F83E0084F83F0084F876
:1016A000400084F8410084F8420084F8430084F844
:1016B000440084F8450084F83D00002010BD00007F
:1016C00008B5114A01681148914211D1816941F46C
:1016D000006181618069002200F400600090114681
:1016E0001920FFF70FFCBDE808401920FFF7FCBBED
:1016F000B1F1804F07D1C16941F00101C161C069F9
:1017000000F00100009008BD002C014000100240D4
:1017100090F83D10012901D001207047022180F886
:101720003D100168CA6842F00102CA6000680B49B6
:10173000884208D0B0F1804F05D00949884202D0D4
:101740000849884204D1816801F00701062903D0C5
:10175000016841F00101016000207047002C014048
:10176000000400400008004070B5044690F83C00BA
:101770000025012817D0012684F83C60022084F857
:101780003D002068826822F0770222F47F42826066
:101790000868502838D00DDC20284FD005DC90B3E5
:1017A000102811D14AE0022070BD302846D04028D0
:1017B0000AD13BE060282FD070280DD0B0F5805FB3
:1017C00003D0B0F5005F12D0012584F83D60002001
:1017D00084F83C00284670BDCB68D1E9012120681F
:1017E00001F0BDF92068816841F0770109E0CB681C
:1017F000D1E90121206801F0B2F92068816841F443
:1018000080418160E1E719E0CA684968206801F019
:101810005BFA5021206806E0CA684968206801F038
:1018200064FA6021206801F0A4F9CEE7CA6849682B
:10183000206801F049FA40212068F4E72268014657
:101840001046F0E7704770B50446006801694FF034
:101850000005C943890715D4C168C943890711D454
:10186000E91E0161012020772068806980072046F9
:1018700002D0FFF7E7FF04E000F0BAF8204600F0DE
:101880004CF9257720680169C943490717D4C16815
:10189000C943490713D46FF0040101610220207786
:1018A0002068806910F4407F204602D0FFF7CAFF0D
:1018B00004E000F09DF8204600F02FF9257720681D
:1018C0000169C943090716D4C168C943090712D47D
:1018D0006FF008010161042020772068C06980074B
:1018E000204602D0FFF7AEFF04E000F081F820466A
:1018F00000F013F9257720680169C943C90617D498
:10190000C168C943C90613D46FF0100101610820F2
:1019100020772068C06910F4407F204602D0FFF78E
:1019200091FF04E000F064F8204600F0F6F8257717
:1019300020680169C943C90708D1C168C943C907FB
:1019400004D1891E0161204600F036F92068016942
:10195000C943090609D4C168C943090605D46FF013
:10196000800101612046FFF747FE20680169C943F5
:10197000490609D4C168C943490605D46FF040013E
:101980000161204600F07AF920680169C94389069F
:101990000BD4C168C943890607D46FF020010161E7
:1019A0002046BDE87040FFF728BE70BD00B585B089
:1019B000002100910191029103910068B0F1804FE4
:1019C00010D10948816941F004018161806969464B
:1019D00000F004000490022000900190039003485E
:1019E000FEF79EFF05B000BD001002400008014058
:1019F000704770B5044690F83C0000260D4601285B
:101A00000FD0012084F83C006AB1042A1DD0082AB6
:101A10002FD00C2A3FD00126002084F83C0030460D
:101A200070BD022070BD206801F0ACF820688169AB
:101A300041F0080181612068816921F00401816120
:101A4000206881692A69114311E0206801F0C2F819
:101A50002068816941F4006181612068816921F415
:101A600080618161206881692A6941EA022181617E
:101A7000D2E7206801F0DAF82068C16941F0080176
:101A8000C1612068C16921F00401C1612068C16998
:101A90002A69114311E0206801F0F4F82068C16957
:101AA00041F40061C1612068C16921F48061C161B4
:101AB0002068C1692A6941EA0221C161ACE710B519
:101AC000040003D094F83D0010B107E0012010BDE0
:101AD000002084F83C00204600F01EF8022084F824
:101AE0003D00211D206800F0F7FF012084F846002A
:101AF00084F83E0084F83F0084F8400084F84100F8
:101B000084F8420084F8430084F8440084F84500D7
:101B100084F83D00002010BD7047704710B50446A2
:101B2000022249B104290ED0082913D094F84100AB
:101B3000012816D0012010BD94F83E000128F9D1EB
:101B400084F83E200FE094F83F000128F2D184F899
:101B50003F2008E094F840000128EBD184F84020B1
:101B600001E084F841200122206800F0EBFF0F49DA
:101B70002068884203D1426C42F4004242642068EB
:101B8000884208D0B0F1804F05D00949884202D080
:101B90000849884204D1816801F00701062903D071
:101BA000016841F001010160002010BD002C0140DE
:101BB000000400400008004070B500682D498842CC
:101BC00055D12D4801240021827C42B1521E12F0D1
:101BD000FF02827403D14471027C42740174C28A90
:101BE000521C93B2C382028B521C92B20283458B69
:101BF000AB4201D90470C182092A34D901831E4D38
:101C00004470C678AB7BEA7B6D7BBEB16D1EE9B2DA
:101C1000417332292CD0FF2925D1632141735B1EEA
:101C2000D9B28173C471FF291DD13B23521ED1B299
:101C30008373C173FF2916D1C37314E06D1CEDB219
:101C40004573322D14D0632D0DD95B1CDBB241736B
:101C50008373C4713B2B06D9521CD2B28173C273F9
:101C60003B2A00D9C173017EC90700D0047170BD41
:101C70008471F8E7002C0140000000207047704795
:101C800070470000F8B5016804460868CA684B69E7
:101C900010F00F0F4FF0000559D003F0010602F4C9
:101CA0009077374365D0C10705D0D10503D5616C66
:101CB00041F001016164410705D5D90703D0616C8A
:101CC00041F002016164810705D5D90703D0616C39
:101CD00041F004016164010707D502F0200131439E
:101CE00003D0616C41F008016164616C00293AD055
:101CF000800604D5900602D5204601F04EF82068F3
:101D00004069616CC0F38010090700D460B32046BD
:101D100001F01CF820684069400621D52068143085
:101D200050E8001F21F0400140E80012002AF5D1E0
:101D3000E06BA8B16D494163E06BFEF78BFD0028B5
:101D400011D0E06B416B01B0BDE8F040084783065D
:101D50000FD593060DD52046BDE8F84001F01DB81B
:101D60002046FFF78DFFF8BD2046FFF789FF656429
:101D7000F8BD266B2023012E7CD1C6067AD5D60667
:101D800078D508684868009048694FF00206400618
:101D900040D5E16B086840680004000CE8D0A28DD3
:101DA0008242E5D9E085886920282DD020680C3052
:101DB00050E8001F21F4807140E80012002AF5D19C
:101DC0002068143050E8001F21F0010140E80012A3
:101DD000002AF5D12068143050E8001F21F040019E
:101DE00040E80012002AF5D184F8423025632068CB
:101DF0000C3050E8001F21F0100140E80012002ACA
:101E0000F5D1E06BFEF702FD6663A08DE18D401A0F
:101E100081B22AE0A08DE18D401A81B2E08D0028C8
:101E2000A6D00029A4D022680C3252E8000F20F47A
:101E3000907042E80007002FF5D12068143050E878
:101E4000002F22F0010240E80027002FF5D184F88E
:101E50004230256320680C3050E8002F22F0100239
:101E600040E80023002BF5D166632046FFF707FF0B
:101E7000F8BDFFE705062BD5150629D594F84100D6
:101E80002128F5D1A068B0F5805F01D12069B0B1FB
:101E9000206A411C2162216800784860E08C401E65
:101EA0000004000CE084E3D12068C16821F08001C7
:101EB000C1602068C16841F04001C160D8E7206A74
:101EC0000088C0F308004860206A801C2062E5E7B3
:101ED0004006CDD55006CBD5CA68204622F0400238
:101EE000CA6084F8413000F0EAF8C1E73D2D0008EF
:101EF00070B5040004D094F84100002510B106E04C
:101F0000012070BD84F84050204600F023F82420C2
:101F100084F841002068C16821F40051C160204666
:101F200000F09CFF2068016921F490410161206864
:101F3000416921F02A0141612068C16841F40051E2
:101F4000C1606564202084F8410084F84200656324
:101F5000002070BD30B585B0002400940194029437
:101F600003940068184988422CD11848816941F4CB
:101F700080418161816901F480410491816941F06E
:101F8000040181618069124D00F0040004904FF457
:101F900000700090022001900320039069462846BB
:101FA000FEF7BEFC2815CDE90004694628460294D8
:101FB000FEF7B6FC002211462520FEF7A3FF2520E0
:101FC000FEF792FF05B030BD00380140001002401E
:101FD0000008014090F84230202B01D002207047C9
:101FE00021B11AB10023036300F094BF01207047B0
:101FF000094988420ED10948094B017C027D5A5497
:10200000491C01740521817400F114010122024868
:10201000FFF7E0BF704700006001002000000020D3
:10202000B80100202DE9F843044690F841001F460E
:1020300016460D46202802D00220BDE8F8837DB167
:1020400076B100206064212084F84100FEF762FD33
:10205000A6848046E684A068B0F5805F02D003E0E5
:102060000120EAE7206910B12E4600250EE0002687
:102070000CE08021204600F068FFA0B9AEB116F850
:10208000010B21684860E08C401EE084E08C4346F0
:102090004FF0000200970028EBD14FF0400120469E
:1020A00000F053FF30B10320C7E735F8020BC0F34F
:1020B0000800E6E7202084F841000020BDE77047D3
:1020C000FEE701684A69D24352050FD46FF480627B
:1020D0004A61002140F8301F202242738173026957
:1020E00042F0040202610173012070470020704732
:1020F0002DE9F843044600680D46DDE908970168BC
:102100009846164641F4807101604B4600224FF01C
:1021100001112046009700F06BF848B12068006874
:10212000C00502D54FF4007020640320BDE8F88399
:10213000216805F0FE0008613B464A4615492046E5
:1021400000F09EF888B920684169806900903A469D
:102150004946204600F0F2F848B1206C042804D12A
:102160002068016841F4007101600120DEE7F5B2EA
:10217000B8F1010F09D02168300A08613A46494692
:10218000204600F0DBF80028E7D120680561002038
:10219000CCE700000200010070B516460D4604466B
:1021A0001EE02046FFF78DFF08B1012070BD681CBE
:1021B00016D0FEF7AFFC801BA84200D885B9206876
:1021C0004069C04340070BD5002044F8300F202160
:1021D0006173A073216941F0200121612073E4E75C
:1021E00020684069C0434007DBD4002070BD000078
:1021F0002DE9F047984617460D460446C1F30746B9
:10220000DDF820902AE000BFB8F1FF3F26D0FEF7AE
:1022100081FCA0EB0901414502D8B8F1000F1DD1A6
:102220002068012E16D0806925EA00000004000C09
:1022300012D00020B84211D1002044F8300F2021E4
:102240006173A073216941F0200121612073012095
:10225000BDE8F0874069E7E70120EBE72068012E41
:102260000AD0806925EA00000004000C06D0002096
:10227000B842C9D00020EBE74069F3E70120F7E757
:102280002DE9F047984616460D4604464FF00009E2
:102290004FF0200AC1F3074723E020684069C0439C
:1022A000400515D42068016841F40071016021687F
:1022B0006FF480604861C4F8309084F83DA084F8E1
:1022C0003E90216C41F00401216484F83C9021E0AF
:1022D000701C06D0FEF71EFCA0EB0800B04203D82D
:1022E00016B1012F1FD021E02068012F15D0806981
:1022F00025EA00000004000C18D000BF44F8309F0D
:1023000084F80DA084F80E90216941F0200121612C
:1023100084F80C900120BDE8F087406925EA0000B0
:102320000004000CEAD12068406901E0206880695F
:1023300025EA00000004000CAFD1ECE770B51646AA
:102340000D4604461EE02046FFF7BBFE08B1012003
:1023500070BD681C16D0FEF7DDFB801BA84200D8BC
:1023600085B920684069C04300060BD5002044F8B9
:10237000300F20216173A073216941F02001216198
:102380002073E4E720684069C0430006DBD40020E6
:1023900070BD00002DE9F04701256F02DFF88C8049
:1023A000DFF88C90234C244E290208B1E57401E03B
:1023B000E07C10B33046FEF7A3FB002580B1394620
:1023C0003046FEF79DFB78B104214046FEF798FBAE
:1023D00068B101214846FEF793FB01280AD023E0AB
:1023E000E5740120BDE8F087E5740220FAE7E574A2
:1023F0000320F7E7E5740420F4E73046FEF780FB9E
:10240000012811D139463046FEF77AFB01280BD15D
:1024100004214046FEF774FB012805D101214846FE
:10242000FEF76EFB00B9E5740020DBE70014014005
:1024300000080140000000200010014010B5084CC9
:10244000012210212046FEF760FB0520FEF760FA0E
:1024500020460022BDE810401021FEF756BB0000C8
:10246000000C014070B50B4D044600F001024FF422
:1024700080612846FEF749FBC4F34002E914284670
:10248000FEF743FBC4F38002A9142846BDE8704060
:10249000FEF73BBB001001402DE9F041104E0F4606
:1024A0000546002425FA04F000F001020821304618
:1024B000FEF72BFB002220213046FEF726FB0520ED
:1024C000FEF726FA012220213046FEF71EFB641C8F
:1024D000E4B2082CE6D33846BDE8F041FFF7C2BFAE
:1024E000000C01403EB50024114800940194029470
:1024F0000E498460016004730475012505614FF481
:1025000060214460C161FDF7C9FF08B1FDF741FFDB
:102510000920CDE90005694602940548FDF73CFF16
:10252000002801D0FDF735FF3EBD0000002401402A
:102530004C0000202DE9F04186B00024354800947D
:10254000019402940394816941F0200181618169C1
:1025500001F020010491816941F0100181618169DC
:1025600001F010010491816941F0040181618169E8
:1025700001F004010491816941F0080181618069E1
:10258000254F00F0080004900122FF213846FEF795
:10259000BCFA00224FF4E0513846FEF7B6FADFF8F5
:1025A0007C80002238214046FEF7AFFA012211025A
:1025B0004046FEF7AAFA41F6FF4001250226CDE982
:1025C0000005CDE9024669463846FEF7A9F9CDE98E
:1025D0000054694612480296FEF7A2F94FF4407083
:1025E0008DE8310069463846FEF79AF904208DE8F7
:1025F000310069460B48FEF793F94FF49C70CDE922
:102600000005CDE9024669464046FEF789F906B065
:10261000BDE8F0810010024000100140000C0140B4
:1026200000080140001401400D4810B50B4901603D
:102630000C49416000214FF480428160C0E90312DF
:1026400041618161C1610162FEF76AFA002803D02D
:10265000BDE81040FDF79DBE10BD000000580040D1
:102660007C000020A086010010B586B00024174829
:102670000094019402940394049413490594016016
:102680004721C0E9011440F2E731C0E90314446175
:102690008461FEF7E7FF08B1FDF77BFE4FF4805041
:1026A000009069460948FFF75FF808B1FDF771FE31
:1026B000049404A905480594FEF7A0FF002801D062
:1026C000FDF767FE06B010BD002C0140D0000020D1
:1026D00010B58EB000240794089409940A940B94C2
:1026E0001C2168460C94FDF76FFD1E484FF0804199
:1026F00001604721C0E9011444F61F61C0E90314D9
:102700008461FEF7AFFF08B1FDF743FE4FF4805040
:10271000079007A91348FFF727F808B1FDF739FE1E
:102720001048FFF7CCF908B1FDF733FE0B940BA965
:102730000C480C94FEF762FF08B1FDF72AFE6020FA
:10274000CDE9000402940422694606480494FFF788
:1027500050F908B1FDF71DFE0248FFF727F90EB04A
:1027600010BD0000180100200C4810B50A49016096
:102770004FF4E1314160002181600C22C160C0E969
:1027800004128161C161FFF7B3FB002803D0BDE8EB
:102790001040FDF7FEBD10BD003801406001002073
:1027A000FEE7FEE720B1012804D1A72000F02AB9F6
:1027B000A620FBE7704710B548B101280CD1C02016
:1027C00000F020F9A020BDE8104000F01BB9C8209F
:1027D00000F018F9A120F6E710BD000070B506461C
:1027E0005FF0000404F1B000C0B200F00BF900206B
:1027F00000F008F9102000F005F90025304600F03F
:1028000013F96D1CEDB2802DF8D3641CE4B2082CD2
:10281000E8D370BD10B54FF4FA7000F0EAFBAE20BB
:1028200000F0F0F8002000F0EDF8102000F0EAF8D9
:10283000402000F0E7F8812000F0E4F8CF2000F01D
:10284000E1F8A12000F0DEF8C82000F0DBF8A620B7
:1028500000F0D8F8A82000F0D5F83F2000F0D2F81A
:10286000D32000F0CFF8002000F0CCF8D52000F005
:10287000C9F8802000F0C6F8D92000F0C3F8F12094
:1028800000F0C0F8DA2000F0BDF8122000F0BAF82D
:10289000DB2000F0B7F8402000F0B4F8202000F072
:1028A000B1F8022000F0AEF88D2000F0ABF8142053
:1028B00000F0A8F8A42000F0A5F8A62000F0A2F8E7
:1028C000AF2000F09FF80020FFF788FF0021BDE84F
:1028D0001040084600F082B82DE9F04717468846B8
:1028E0008146294C4AE02038C6B24146484600F0AD
:1028F00075F8002505EB8610205C00F095F86D1C3E
:10290000EDB2102DF6D308F10100C1B2484600F037
:1029100065F8002505EB86102044007C00F084F863
:102920006D1CEDB2102DF5D308F10200C1B248467E
:1029300000F054F85FF0000505EB8610204490F895
:10294000200000F071F86D1CEDB2102DF4D308F1E9
:102950000300C1B2484600F041F8002505EB86109F
:10296000204490F8300000F05FF86D1CEDB2102D9F
:10297000F4D309F1100000F0FF097F1C387800281B
:10298000B1D1BDE8F08700001C3B00082DE9F04103
:10299000203A0F4680460024D6B200F01FF80E4DB4
:1029A00004EB0610285C00F03FF8641CE4B2082C2D
:1029B000F6D37F1CF9B2404600F010F85FF0000437
:1029C00004EB06102844007A00F02EF8641CE4B2F0
:1029D000082CF5D3BDE8F0811C33000810B504467F
:1029E000B031C8B200F00EF8102040EA141000F028
:1029F00009F804F00F00BDE8104040F0010000F0BD
:102A000001B8000001B584B00121642204A88DE85A
:102A100007000B46002278210248FEF745F905B071
:102A200000BD00007C00002001B584B001216422BB
:102A300004A88DE807000B46402278210248FEF7E3
:102A400033F905B000BD00007C00002070477047DE
:102A5000FEF7F2B930B593B028216846FDF7B4FB14
:102A600014210AA8FDF7B0FB002401210F94109453
:102A70000804CDE9001011941294029402250491E7
:102A8000CDE907504FF4E01009906846FEF710FCBE
:102A900008B172B6FEE70F20CDE90A054FF4806059
:102AA000CDE90C4002210AA80E94FEF725FB08B1DF
:102AB00072B6FEE70FA80F951194FEF7A7FA00284B
:102AC00001D072B6FEE713B030BD70470148FEF783
:102AD000BABE0000D0000020F0B50268164B174CBB
:102AE000174D4FF08047984205D0B84203D0A0421E
:102AF00001D0A84203D122F070064A6832439842BE
:102B000005D0B84203D0A04201D0A84203D122F49C
:102B10004074CA6822434C6922F08002224302605A
:102B20008A68C2620A688262984201D109690163B7
:102B300001214161F0BD0000002C01400004004073
:102B40000008004010B501F01F030121046A9940FC
:102B50008C430462016A9A401143016210BD10B5B2
:102B6000846842EA032224F47F440A4322438260B9
:102B700010BD826822F070020A4342F007018160B2
:102B80007047000030B5036A026A22F00102026257
:102B90004268846924F073050C682C4323F0020515
:102BA0008B682B430A4DA8420BD123F00805CB6854
:102BB00022F440722B434D6923F0040315438A69C4
:102BC0002A434260846149684163036230BD00006A
:102BD000002C014030B5026A036A23F0100303623F
:102BE000436884690D6824F4E64444EA05248D684A
:102BF00022F0200242EA05120B4DA8420ED1CD6808
:102C000022F0800242EA05124D6923F4406343EA50
:102C100085038D6922F0400243EA850343608461A5
:102C200049688163026230BD002C014030B5036AFF
:102C3000026A22F4807202624268C46923F400735B
:102C400024F073050C682C438D6843EA05230C4D72
:102C5000A8420ED1CD6823F4006343EA05234D69F1
:102C600022F4405242EA05128D6923F4806342EA5D
:102C700005124260C4614968C163036230BD00004F
:102C8000002C014030B5046A026A22F480520262CC
:102C90004268C3690D6823F4E64343EA05238D685F
:102CA00024F4005444EA0534064DA84204D14D6989
:102CB00022F4804242EA85124260C361496801649D
:102CC000046230BD002C014010B5036A046A24F090
:102CD00001040462846924F0F00444EA021423F03D
:102CE0000A020A438461026210BD10B5036A046AD5
:102CF00024F010040462846923F0A00324F47044D7
:102D000044EA023243EA01118261016210BD00000F
:102D100070B5094D06464FF48074002221462846BE
:102D2000FDF7F3FE3046FDF7E1FD21462846BDE8FC
:102D300070400122FDF7E9BE000C014010B5406A69
:102D40000021C185C184FEF79BFF10BD01680C31D5
:102D500051E8002F22F4907241E80023002BF5D1B6
:102D60000168143151E8002F22F0010241E80023EC
:102D7000002BF5D1016B012909D101680C3151E813
:102D8000002F22F0100241E80023002BF5D1202172
:102D900080F8421000210163704708B590F8421096
:102DA000222901D0022008BD82684FF480539A4244
:102DB00001D1016921B1816A9A421BD04AB10AE06E
:102DC0000268816A5268C2F308020A80816A891C1B
:102DD00008E0026972B10268526802F07F020A706C
:102DE000816A491C8162C18D491E0904090CC18593
:102DF00003D01BE002685268F1E70168CA6822F05C
:102E00002002CA600168CA6822F48072CA60016840
:102E10004A6922F001024A61202180F84210002113
:102E20004163026B012A03D0FFF7E2F8002008BDDE
:102E3000016301680C3151E8002F22F0100241E8D3
:102E40000023002BF5D101680A68D20602D50A6872
:102E500049680091818DFEF712FFE7E770B50446DF
:102E600000680169E26821F4405111430161216960
:102E7000A0680843616908432168CA6841F20C638D
:102E80009A430243CA6020684169A26921F44071F3
:102E9000114341611E492068884202D1FEF7D2F9F0
:102EA00001E0FEF7BFF900EBC00101EB0012606822
:102EB00064218000B2FBF0F3B3FBF1F36FF018066E
:102EC0007343B2FBF0F5B2FBF0F605EB830532235A
:102ED00003EB0515B5FBF1F5B6FBF1F605F0F005D2
:102EE00005EB0615B2FBF0F6B2FBF0F0B0FBF1F02B
:102EF0006FF01802504306EB800003EB0010B0FBAC
:102F0000F1F0216800F00F002844886070BD0000D7
:102F10000038014081628285C285002141642221FE
:102F200080F84210016921B10168CA6842F48072D8
:102F3000CA6001684A6942F001024A610068C168DA
:102F400041F02001C160002070472DE9F041984612
:102F500017460E460446069D27E0681C25D02DB175
:102F6000FDF7D8FDA0EB0800A8421ED920680C3060
:102F700050E8001F21F4D07140E80012002AF5D17A
:102F80002068143050E8001F21F0010140E80012D1
:102F9000002AF5D1202084F8410084F84200002066
:102FA00084F840000320BDE8F0812068006836EA1C
:102FB000000004D00020B842CFD00020F3E7012069
:102FC000F9E700000148FEF75DBE00006001002047
:102FD000FEE70907090E002804DB00F1E02080F875
:102FE0000014704700F00F0000F1E02080F8141D7D
:102FF0007047002804D06C21491EFDD1401EFAD133
:1030000070470000FDF720FFFFF724FDFFF792FA5D
:10301000FFF72AFBFFF75CFBFFF7A6FBFFF762FA5F
:10302000FFF702FB0421A648FEF778FDA548FEF74E
:103030006FFB0122A449A548FEF7CCFFFFF7EAFB8E
:1030400000214B220846FFF7A1FC0021A0A2084660
:10305000FFF742FCA0A204210020FFF73DFC002066
:10306000FFF7A9FB0020FFF79DFB974C0026DFF838
:1030700074A2143C04F12007E07930B1994AE6715A
:10308000103A04212020FFF727FCA079002869D0FE
:10309000A6719548FDF75AFB0A219348FDF7B8FA47
:1030A0009148FDF7F7F9E0830B231A468FA1874873
:1030B000FEF7B8FFE08B40F6E441484340F6FF716D
:1030C000B0FBF1F081B24FF47A79B1FBF9F20A2545
:1030D000B2FBF5F005FB10228248E1831038303254
:1030E00002702E2242704FF06408B1FBF8F2B2FB7E
:1030F000F5F305FB132230328270B1FBF5F2B2FB1F
:10310000F5F305FB13223032C270B1FBF5F205FB7B
:10311000121130310171052301461A466B48FEF742
:1031200081FF03231A4674A16848FEF77BFFE08BFA
:10313000B0FBF9F2B2FBF5F105FB11213971B0FBDF
:10314000F8F1B1FBF5F205FB12117971B0FBF5F165
:10315000B1FBF5F205FB1211B971B0FBF5F105FBFE
:103160001100F871607990B3667164A0FDF7FCF806
:1031700010B1607C022808D061A0FDF7F5F858B1C5
:103180009AF807003038A07017E004231A465EA1B1
:103190004E48FEF747FF10E05DA0FDF7E5F860B18F
:1031A0009AF807009AF80810303800EB80006FF0AA
:1031B0002F0202EB4000084460833220FFF7A8FD95
:1031C000002051460E54401CC0B22028FAD320786B
:1031D000D0B12670A078B8B1607A401C00F007002A
:1031E0006072E17811B10121814001E08021C1408C
:1031F000494DA1720122FF212846FDF786FC0022DD
:10320000A17A2846FDF781FC607848B32C49A08B51
:10321000096800F5FA7088630020FFF7BBF8207298
:10322000012806D002280ED0032829D0042832D144
:1032300017E03220FFF76CFDE078401C00F0010041
:10324000E070A68327E03220FFF762FD608BC8287C
:1032500001D2401D6083A08B64281CD36438A083F6
:1032600019E03220FFF754FD608B052801D9401F7B
:103270006083A08B40F26C7188420CD86430EEE71A
:103280003220FFF745FDA078401C00F00100A0703F
:103290004FF4FA60E3E7207900283FF4EDAE2671A1
:1032A000E07A094A401C00F00701E172785C1432B0
:1032B0002073105CFFF7F0F8FFF7C0F8DCE60000C1
:1032C00018010020D0000020140000206001002020
:1032D000566F6C7461673D002020787878786D5661
:1032E00000000000B80100204C00002041444320B1
:1032F00076616C7565203D00560D0A004154000052
:1033000041542B52554E3D004F4B0D0A000000001A
:1033100041542B4741503D00001001400000000087
:10332000000000000000000000000000000000F8A5
:1033300000000000000000333000000000100C0608
:10334000100C0600000000000000000040C07840A3
:10335000C0784000043F04043F040400007088FC6F
:1033600008300000001820FF211E0000F008F000C7
:10337000E018000000211C031E211E0000F0088838
:10338000700000001E2123241927211010160E00A2
:10339000000000000000000000000000000000E04D
:1033A0001804020000000007182040000002041862
:1033B000E00000000040201807000000404080F0BE
:1033C000804040000202010F01020200000000F0F4
:1033D000000000000101011F0101010000000000C8
:1033E0000000000080B0700000000000000000003D
:1033F00000000000000101010101010100000000C6
:10340000000000000030300000000000000000005C
:1034100080601804006018060100000000E0100839
:103420000810E000000F102020100F00001010F80E
:10343000000000000020203F20200000007008084D
:1034400008887000003028242221300000300888CD
:10345000884830000018202020110E000000C020F5
:1034600010F8000000070424243F240000F8088816
:10347000880808000019212020110E0000E01088A3
:1034800088180000000F112020110E0000380808D5
:10349000C83808000000003F0000000000708808E5
:1034A00008887000001C222121221C0000E0100866
:1034B0000810E0000000312222110F00000000C0BF
:1034C000C00000000000003030000000000000805C
:1034D000000000000000806000000000000080404C
:1034E0002010080000010204081020004040404065
:1034F00040404000040404040404040000081020B8
:1035000040800000002010080402010000704808FC
:103510000808F0000000003036010000C030C82864
:10352000E810E0000718272423140B000000C0381F
:10353000E0000000203C23020227382008F8888899
:1035400088700000203F202020110E00C0300808A5
:1035500008083800071820202010080008F808087C
:103560000810E000203F202020100F0008F8888875
:10357000E8081000203F20202320180008F8888841
:10358000E8081000203F200003000000C0300808B9
:103590000838000007182020221E020008F8080042
:1035A0000008F808203F210101213F20000808F809
:1035B000080800000020203F20200000000008082C
:1035C000F8080800C08080807F00000008F888C0EC
:1035D00028180800203F20012638200008F808009D
:1035E00000000000203F20202020300008F8F800D4
:1035F000F8F80800203F003F003F200008F830C0E6
:103600000008F808203F200007183F00E0100808D5
:103610000810E0000F10202020100F0008F8080804
:103620000808F000203F210101010000E010080817
:103630000810E0000F18242438504F0008F888883C
:1036400088887000203F2000030C3020007088081C
:10365000080838000038202121221C00180808F82A
:10366000080818000000203F2000000008F80800AB
:103670000008F808001F202020201F00087888007C
:1036800000C83808000007380E010000F80800F8EC
:103690000008F800033C0700073C03000818688096
:1036A0008068180820302C03032C30200838C8000C
:1036B000C83808000000203F20000000100808085B
:1036C000C83808002038262120201800000000FEFD
:1036D000020202000000007F40404000000C30C0A9
:1036E00000000000000000010638C00000020202D5
:1036F000FE000000004040407F0000000000040287
:1037000002020400000000000000000000000000B1
:1037100000000000808080808080808000020204A1
:103720000000000000000000000000000000808099
:10373000808000000019242222223F2008F8008007
:1037400080000000003F112020110E0000000080CA
:1037500080800000000E1120202011000000008059
:103760008088F800000E112020103F20000080808B
:1037700080800000001F222222221300008080F09F
:10378000888888180020203F2020000000008080CA
:1037900080808000006B94949493600008F800800F
:1037A00080800000203F210000203F20008098986A
:1037B000000000000020203F2020000000000080CA
:1037C0009898000000C08080807F000008F800000A
:1037D00080808000203F24022D302000000808F85F
:1037E000000000000020203F20200000808080801A
:1037F00080808000203F20003F20003F80800080AC
:1038000080800000203F210000203F2000008080B9
:1038100080800000001F202020201F00808000806A
:103820008000000080FFA12020110E000000008019
:1038300080808000000E112020A0FF80808080000A
:103840008080800020203F21200001000000808037
:10385000808080000033242424241900008080E02C
:10386000808000000000001F2020000080800000F9
:1038700000808000001F202020103F2080808000DA
:103880000080808000010E300806010080800080EA
:10389000008080800F300C030C300F00008080000F
:1038A000808080000020312E0E312000808080003A
:1038B0000080808080818E701806010000808080EA
:1038C000808080000021302C222130000000000088
:1038D000807C020200000000003F40400000000029
:1038E000FF00000000000000FF0000000002027C5A
:1038F000800000000040403F000000000006010181
:1039000002020404000000000000000000000000AB
:1039100000000000000000000000000000000000A7
:103920000000000000000000000000000000000097
:103930000000000000000000000000000000000087
:103940000000000000000000000000000000000077
:103B60000000C0C0C0C00000000000000000000055
:103B700000000FFFFF1F0000000000000000000019
:103B80000000001F1F0000000000000000000000F7
:103B90000000060F0F06000000000000000000807B
:103BA000E0783C1C80E0783C1C0000000000030131
:103BB0000000000301000000000000000000000001
:103BC00000000000000000000000000000000000F5
:103BD00000000000000000000000000000000000E5
:103BE00000C0000000000000C000000000383838AD
:103BF000F83F3838383838F83F383800007070F0FF
:103C0000FF7070707070F0FF707070000000000F37
:103C10000000000000000F00000000000000000095
:103C2000808040F040408080000000000000001EC6
:103C30007FF0C0FF00000C0F0F0000000000C0C0AC
:103C4000C00001FF07071EFCF00000000000030792
:103C50000408087F080C0603010000000080C04033
:103C6000C0800000000000C0000000007EFF0000D7
:103C700000FF7E00E01C03000000000000010302C2
:103C800083611C03F8FE030103FEF8000000000C32
:103C90000300000001070C080C0701000000008071
:103CA000C04040C0000000000000000000007FFF96
:103CB000C080603F0F00000000000000F8FC03031C
:103CC0000F3E78E08081710F010100000103060CB6
:103CD0000808080503070E0C0C06030000001C1C56
:103CE000FC7800000000000000000000000203015A
:103CF00000000000000000000000000000000000C4
:103D000000000000000000000000000000000000B3
:103D100000000000000000000000000000000000A3
:103D2000000000000000C060300804000000000037
:103D3000000000F0FC0F0100000000000000000087
:103D40000000001F7FE000000000000000000000F5
:103D5000000000000001070C18204000000408309B
:103D600060C0000000000000000000000000000033
:103D700000010FFCF0000000000000000000000047
:103D80000000E0FF1F0000000000000000402018BD
:103D90000C0701000000000000000000000000000F
:103DA00000000000000000000000000000001838C3
:103DB00030604086FF8F4060303818000000181CCB
:103DC0000C0602F1FFE102060C1C180000000000C6
:103DD00000000000000000000000000000000000E3
:103DE00000000000000000000000000000000000D3
:103DF00000000000FE0000000000000000000101C3
:103E000001010101FF0101010101010000000000A9
:103E100000000000000000000000000000000000A2
:103E20000000000000000000000000000000000092
:103E30000000000000000000000000000000000082
:103E40000000000000000000000000000080C747E4
:103E50003F1E000000000000000000000000000005
:103E60000000000000000000000000000000000052
:103E7000000000000000000000000000000101013F
:103E80000101010101010101010101000000000027
:103E90000000000000000000000000000000000022
:103EA0000000000000000000000000000000000012
:103EB0000000000000000000000000000000000002
:103EC0000000000000000000000000000000060FDD
:103ED0000F060000000000000000000000000000CD
:103EE0000000000000000000C0701800000000008A
:103EF00000000000C0701C0701000000000000006E
:103F0000C0701C07010000000000000000301C070A
:103F100001000000000000000000000000000000A0
:103F20000080C04040408000000000000000F0FE23
:103F30000F01000000000107FEF0000000003FFF3D
:103F4000C000000000000080FF3F000000000001F2
:103F500003060C080808060301000000000000002A
:103F600000000080C0000000000000000000000110
:103F7000010101FFFF000000000000000000000040
:103F8000000000FFFF00000000000000000000082B
:103F900008080C0F0F0C08080800000000000000C3
:103FA000804040404040C0808000000000001E195A
:103FB00000000000000000C1FF3E00000000000003
:103FC000804030180C06030100C0000000000E0DF8
:103FD0000C0C0C0C0C0C0C0C0E03000000000080F0
:103FE0008040404040C080000000000000000F0FF3
:103FF000000000000080C17F3E0000000000C0C043
:104000000000010101030206FCF0000000000307AC
:104010000408080808080406030000000000000067
:104020000000000000C0C000000000000000000010
:104030008060100C03FFFF000000000000302C2601
:104040002120202020FFFF20202000000000000071
:1040500000000808080F0F08080800000000000012
:10406000C0C0C0C0C0C0C0C0C0C00000000000FFD1
:10407000008040404040C080000000000000C0C3FD
:104080000100000000000001FFFC0000000003042C
:1040900004080808080804070300000000000000E6
:1040A0000080804040404080800000000000E0FC34
:1040B0000781C0404040C0830300000000007FFF34
:1040C0008300000000000001FFFC00000000000170
:1040D00007060C0808080C0603000000000000C0DA
:1040E000C0C0C0C0C0C0C0C0C0C0000000000E033F
:1040F0000000000000E018060100000000000000C1
:104100000000C0FC030000000000000000000000F0
:1041100000000F0F00000000000000000000000081
:1041200080C040404040C0800000000000003E7F52
:10413000F1C0C080000080417F1E000000F0FC0E36
:104140000201010103070E1EFCF00000000103063E
:1041500004080808080804060301000000000080A5
:1041600080404040404080000000000000FCFF0311
:104170000000000000000003FEF80000000103073B
:104180000C080808080406E17F1F0000000007076C
:10419000080808080C0603010000000000000000E9
:1041A000000000000000000000000000000000000F
:1041B0000000C0E0E0C000000000000000000000BF
:1041C00000000001010000000000000000000000ED
:1041D0000000060F0F0600000000000000000000B5
:1041E00000000000000000000000000000000000CF
:1041F0000000C0C0C000000000000000000000007F
:1042000000000101010000000000000000000000AB
:1042100000006E7E1E000000000000000000000094
:1042200000000000000000008040000000000000CE
:10423000804020100804020100000000000000037C
:104240000408102040800000000000000000000072
:10425000000000000000010204080000000000004F
:1042600000000000000000000000000000202020EE
:1042700020202020202020202020200000080808C6
:1042800008080808080808080808080000000000D6
:10429000000000000000000000000000000040805E
:1042A000000000000000000000000000000000000E
:1042B00001020408102040800000000000000000FF
:1042C00000008040201008040300000000000804E3
:1042D00002010000000000000000000000000000DB
:1042E00080804040404040808000000000003C3F13
:1042F0003900000000000080C17F3E000000000087
:10430000000000003E03010100000000000000006A
:104310000000060F0F060000000000000000000073
:104320000080C040404040800000000000E0FC0EE3
:104330000381E0780C04F83C0106F800001FFFC080
:10434000003F7F40203C7F40201887000000000392
:10435000060408080808080406030000000000001E
:104360000000C0C0C000000000000000000000000D
:10437000C07C03033FFC8000000000000000807C44
:104380000F080808080B7FF880000000080C0F08D1
:10439000080000000000080F0F0C0800004040C09B
:1043A000C04040404040C08080000000000000FF4E
:1043B000FF000000000080C17F3E0000000000FF01
:1043C000FF0101010101010206FCF0000008080FD5
:1043D0000F0808080808080C060301000000000088
:1043E0000080C040404040808080000000E0FC1E13
:1043F000030000000000000001030E00003FFFC0AA
:1044000000000000000000000000C00000000003E9
:10441000060408080808080402010000004040C023
:10442000C040404040C0808000000000000000FF0D
:10443000FF000000000000010FFCF000000000FF82
:10444000FF00000000000000C0FF1F000008080F70
:104450000F080808080C040303000000004040C0D7
:10446000C040404040404040C0C00000000000FF4D
:10447000FF000000000080E000010600000000FFD7
:10448000FF0101010101030F000080000008080F77
:104490000F080808080808080C0E0100004040C07A
:1044A000C0404040404040C0C0C00000000000FF8D
:1044B000FF000000000080E000010600000000FF97
:1044C000FF0101010101031F000000000008080FA7
:1044D0000F080800000000000000000000000000BD
:1044E00080804040404080800000000000E0FC0EE2
:1044F00003000000000000030E000000001FFFC0CA
:1045000000000000000404FCFC04040000000003A0
:10451000060C080808080403030000004040C0C05F
:104520004040000000004040C0C040400000FFFF8D
:104530000000000000000000FFFF00000000FFFF7F
:104540000101010101010101FFFF000008080F0F37
:1045500008080000000008080F0F080800000040CD
:10456000404040C0C040404040000000000000000B
:10457000000000FFFF00000000000000000000003D
:10458000000000FFFF000000000000000000000825
:104590000808080F0F0808080800000000000000C5
:1045A0000040404040C0C04040404000000000008B
:1045B0000000000000FFFF000000000000000000FD
:1045C0000000000000FFFF00000000000070F0F09D
:1045D000808080C0603F1F0000000000004040C09D
:1045E000C04040000040C0C040400000000000FF4C
:1045F000FF0080E01806030000000000000000FF3C
:10460000FF0300030F3CF0C0000000000008080F8B
:104610000F0808000000090F0E080800004040C005
:10462000C04040000000000000000000000000FF4B
:10463000FF0000000000000000000000000000FF7C
:10464000FF00000000000000000080000008080FCC
:104650000F080808080808080C0E01004040C0C0F8
:104660008000000000000080C0C040400000FF0F3C
:10467000FFF0000000807807FFFF00000000FF004F
:10468000011FFEC0F00F0000FFFF000008080F0828
:104690000000030F000008080F0F08084040C0C0CA
:1046A000800000000000004040C040400000FF01CA
:1046B000071E78E08000000000FF00000000FF00FF
:1046C00000000001071E78E080FF000008080F08C6
:1046D0000800000000000001070F000000000000BB
:1046E00080804040404080800000000000F0FC0FCF
:1046F00001000000000000010FFCE000001FFFC0EF
:104700000000000000000000C0FF3F0000000003A8
:10471000060408080808040603000000004040C022
:10472000C0404040404040C080000000000000FF0A
:10473000FF0000000000000081FF7E00000000FF7D
:10474000FF02020202020201010000000008080F3D
:104750000F0808000000000000000000000000003A
:1047600080804040404080800000000000F0FC0F4E
:1047700001000000000000010FFCF000003FFF807E
:1047800080404040C080000080FF3F0000000103E7
:1047900007040808080F3F7663611000004040C01E
:1047A000C04040404040C08080000000000000FF4A
:1047B000FF000000000080C17F3E0000000000FFFD
:1047C000FF010101073FF9C0000000000008080FC9
:1047D0000F0808000000010F0E080800000000800C
:1047E000C040404040C08080C0000000003E7FE1EB
:1047F000C0C08080000000030F00000000E08000C7
:10480000000101030307061EFCF0000000000F0674
:104810000408080808080C06030100000000C0C0D6
:10482000404040C0C040404040C000000006010081
:10483000000000FFFF000000000107000000000072
:10484000000000FFFF00000000000000000000006A
:104850000008080F0F080800000000004040C0C01A
:104860004040000000004040C04040000000FFFF0A
:104870000000000000000000FF0000000000FFFF3B
:104880000000000000000000FF0000000000010721
:10489000060C08080808040201000000004040C09F
:1048A000C040000000000040C0C040000000000701
:1048B000FFF8000000008078070000000000000002
:1048C000000FFFF0807807000000000000000000EB
:1048D0000000000F030000000000000040C0C040C6
:1048E000000040C0C040000040C0C0400001FFF8D0
:1048F000000000F3FFF80000C03F00000000003F90
:10490000FCE01E0101FFFCF00F00000000000000B1
:104910000F03000000000F0100000000004040C035
:10492000C040000000004040C040400000000001C6
:10493000071E78E0C0300C030000000000000000FB
:10494000806018070F7CF0C0000000000008080E0F
:104950000B0800000000090F0E0C08000040C0C04A
:10496000C040400000004040C04040000000000344
:104970001F7CE0800080700E01000000000000003D
:10498000000003FFFE010000000000000000000026
:104990000008080F0F08080000000000000000C019
:1049A000C0C0404040404040C0C04000000006033E
:1049B00001000000C0F0380E070100000000008078
:1049C000C0703C0F030000000000800000080E0FC4
:1049D000090808080808080C0C0F01000000000076
:1049E0000000F8F8080808080808000000000000A7
:1049F0000000FFFF000000000000000000000000B9
:104A00000000FFFF000000000000000000000000A8
:104A100000003F3F202020202020000000000060F8
:104A2000E0000000000000000000000000000000A6
:104A3000010F3CE0800000000000000000000000CA
:104A400000000001073CF0C0000000000000000072
:104A500000000000000001073E7840000000080848
:104A600008080808F8F80000000000000000000036
:104A700000000000FFFF0000000000000000000038
:104A800000000000FFFF00000000000000002020E8
:104A9000202020203F3F0000000000000000000018
:104AA00020101C0C0C0C182000000000000000005E
:104AB00000000000000000000000000000000000F6
:104AC00000000000000000000000000000000000E6
:104AD00000000000000000000000000000000000D6
:104AE00000000000000000000000000000000000C6
:104AF00000000000000000000000000000000000B6
:104B000000000000000000000000000080808080A5
:104B10008080808080808080808080800000000491
:104B200004040C0810000000000000000000000059
:104B30000000000000000000000000000000000075
:104B40000000000000000000000000000000000065
:104B50000000000000000000000000000000000055
:104B6000000000000000000000000000000080C005
:104B700040202020202060C08000000000C0E333DF
:104B800010180808080804FFFF0000000003070CC5
:104B900008080808080404070F080806004040C079
:104BA000E00000000000000000000000000000FF26
:104BB000FF804020202060C0C0000000000000FFF7
:104BC000FF01000000000000FFFF00000000000FD8
:104BD0000706080808080C06030000000000000093
:104BE00000000000000000000000000000000000C5
:104BF000C0C06020202020C0800000000000FEFF18
:104C0000010000000000000303800000000000031A
:104C1000070408080808080402010000000000005A
:104C200000000000004040C0E000000000000080E4
:104C3000C0602020202040FFFF0000000000FEFF99
:104C400001000000000000FFFF0000000000000362
:104C5000060C08080804020F070404000000000006
:104C60000000000000000000000000000000000044
:104C7000C0402020202040C0800000000000FEFF37
:104C800011101010101010101F1E00000000000363
:104C900007040C08080808040601000000000000D2
:104CA000000000808040404040C080000000202084
:104CB0002020FEFF20202020200303000000000011
:104CC0000000FFFF000000000000000000000008DE
:104CD00008080F0F08080808000000000000000086
:104CE00000000000000000000000000000000000C4
:104CF000C0402020202060C0A0606000000000C7ED
:104D0000FF3020202020301F0F0000000000387DE1
:104D100047838383838382467E3C0000004040C0FB
:104D2000E00000000000000000000000000000FFA4
:104D3000FF804020202060C080000000000000FFB5
:104D4000FF000000000000FFFF0000000008080F47
:104D50000F0808000008080F0F08080000000000F6
:104D6000000080C0C08000000000000000000020A3
:104D7000202020E1F1000000000000000000000001
:104D8000000000FFFF00000000000000000000081D
:104D90000808080F0F0808080800000000000000BD
:104DA000000000000080C0C0C00000000000000043
:104DB000000020202020E1F10000000000000000A1
:104DC000000000000000FFFF000000000000006085
:104DD000E080808080603F1F00000000004040C0F5
:104DE000E00000000000000000000000000000FFE4
:104DF000FF0000000020E06020200000000000FF15
:104E0000FF30180C3E71C080000000000008080F41
:104E10000F0808000000090F0E0C080000000040F9
:104E2000404040C0E0000000000000000000000022
:104E3000000000FFFF000000000000000000000074
:104E4000000000FFFF00000000000000000000085C
:104E50000808080F0F0808080800000000000000FC
:104E600000000000000000000000000020E0F04012
:104E7000202020E0C040202020E0C00000FFFF00F4
:104E8000000000FFFF00000000FFFF00080F0F08F8
:104E90000000080F0F080000080F0F0800000000B6
:104EA000000000000000000000000000004040C0C2
:104EB000E0804020202060C080000000000000FF53
:104EC000FF000000000000FFFF0000000008080FC6
:104ED0000F0808000008080F0F0808000000000075
:104EE00000000000000000000000000000000000C2
:104EF000C0402020202040C0800000000000FCFFB7
:104F00000100000000000001FFFE0000000000039F
:104F10000704080808080407030000000000000058
:104F2000000000000000000000000000004040C041
:104F3000E0804020202060C080000000000000FFD2
:104F4000FF00000000000000FFFE0000008080FF66
:104F5000FF86840808080C0703000000000000001A
:104F600000000000000000000000000000000080C1
:104F7000C04020202060C0C0E00000000000FEFF14
:104F800001000000000000FFFF000000000000031F
:104F9000060C0808088486FFFF80800000000000DF
:104FA0000000000000000000000000000040404041
:104FB00040E0E0008040402020E0C0000000000011
:104FC00000FFFF03010000000000000000080808C7
:104FD000080F0F080808080000000000000000008B
:104FE00000000000000000000000000000000000C1
:104FF00080C0602020202040C0E000000000008031
:10500000070F0C1818383070E0C300000000000FC4
:10501000060408080808080C070300000000000048
:105020000000000000000000000000000000202040
:105030002030F8FF20202020200000000000000089
:105040000000FFFF00000000000000000000000062
:10505000000003070C08080804030000000000001B
:10506000000000000000000000000000002020E020
:10507000F0000000002020E0F0000000000000FF31
:10508000FF000000000000FFFF0000000000000320
:10509000070C08080804020F0704040000000000C1
:1050A000000000000000000000000000002020E0E0
:1050B000E020000000002020E0602000000000014F
:1050C000073EF0C000C038070100000000000000EB
:1050D0000000010F070100000000000000000000B8
:1050E0000000000000000000000000002060E02040
:1050F000200020E0E020000020E060200000077F8A
:10510000F080F00F1FFCC0C03C0300000000000056
:10511000070F000000010F03000000000000000066
:10512000000000000000000000000000000020203F
:10513000E0E0A000002020E02020000000000000AF
:105140000081473E38E6C100000000000008080C5E
:105150000E0900000008090F0E08080000000000FA
:10516000000000000000000000000000002020E01F
:10517000E0200000000020E060202000000000008F
:10518000031E78C000E01C03000000000000C0C047
:10519000C0C0601F0300000000000000000000000D
:1051A0000000000000000000000000000000E0E03F
:1051B000202020202020E0E060000000000003000C
:1051C00080C0F0381E0703000080000000000C0EB5
:1051D0000B0908080808080C0E0300000000000076
:1051E000000000000000F0080404000000000000BF
:1051F0000000000080807F00000000000000000030
:10520000000000010102FC0000000000000000009E
:105210000000000000001F204040000000000000CF
:1052200000000000FF00000000000000000000007F
:1052300000000000FF00000000000000000000006F
:1052400000000000FF00000000000000000000005F
:1052500000000000FF00000000000000000000044B
:105260000408F00000000000000000000000000042
:1052700000007F80800000000000000000000000AF
:105280000000FC02010100000000000000000040DE
:1052900040201F0000000000000000000018040271
:1052A0000202060C38206040402018000000000078
:1052B00000000000000000000000000000000000EE
:1052C00000000000000000000000000000000000DE
:1052D00000000000000000000000000000000000CE
:1052E00000000000000000000000000000000000BE
:105B1000000000000000000000000000010202037D
:105B20000405060708090A0B0C0D0E0F10100102E0
:105B300002030405060708090A0B0C0D0E0F1010CE
:105B4000000000000000000001020304060708092D
:105B50000000000001020304785B00080000002040
:105B60004C00000028010008C45B00084C00002025
:105B7000EC070000440100080000000000000000E5
:105B8000000000000000000000000501000000000F
:105B9000000032000000000010101010100607086E
:105BA000FC60DAF266B6BEE0FEF6EE3E9C7A9E8EB1
:105BB00002000000010000001000000000000000D2
:045BC0000024F400C9
:04000005080000ED02
:00000001FF
