:020000040800F2
:10000000A80700208901000841210008711D00088F
:100010003D2100088F020008812800080000000030
:100020000000000000000000000000007121000836
:10003000C1020008000000004521000873210008EB
:10004000A3010008A3010008A3010008A301000800
:10005000A3010008A3010008A3010008A3010008F0
:10006000A3010008A3010008A3010008A3010008E0
:10007000A3010008A3010008A3010008A3010008D0
:10008000A3010008A3010008A3010008A3010008C0
:10009000A3010008A3010008A3010008A3010008B0
:1000A000A3010008E5210008A3010008A30100083E
:1000B000A3010008A3010008A3010008A301000890
:1000C000A3010008A3010008A3010008A301000880
:1000D000A301000871280008A3010008A30100087B
:1000E000A3010008A3010008A301000800F002F822
:1000F00000F03AF80AA090E8000C82448344AAF188
:100100000107DA4501D100F02FF8AFF2090EBAE885
:100110000F0013F0010F18BFFB1A43F0010318473B
:10012000D42A0000F42A0000103A24BF78C878C10D
:10013000FAD8520724BF30C830C144BF04680C60ED
:10014000704700000023002400250026103A28BF35
:1001500078C1FBD8520728BF30C148BF0B60704739
:100160001FB51FBD10B510BD00F058F81146FFF7C0
:10017000F7FF02F0A3FB00F076F803B4FFF7F2FFFD
:1001800003BC00F07DF8000009488047094800479B
:10019000FEE7FEE7FEE7FEE7FEE7FEE7FEE7FEE737
:1001A000FEE7FEE704480549054A064B7047000094
:1001B000E1210008ED000008A8010020A8070020A8
:1001C000A8030020A80300204FF0000200B513464A
:1001D00094469646203922BFA0E80C50A0E80C5067
:1001E000B1F12001BFF4F7AF090728BFA0E80C5018
:1001F00048BF0CC05DF804EB890028BF40F8042B11
:1002000008BF704748BF20F8022B11F0804F18BF7D
:1002100000F8012B7047704770477047754600F033
:100220002BF8AE4605006946534620F00700854688
:1002300018B020B5FFF7B6FFBDE820404FF000062C
:100240004FF000074FF000084FF0000B21F00701BE
:10025000AC46ACE8C009ACE8C009ACE8C009ACE801
:10026000C0098D46704710B50446AFF300802046A4
:10027000BDE81040FFF781BF0048704744010020EF
:1002800001491820ABBEFEE726000200704700BF00
:10029000FEE7000010B5014600220AE011F8014B0C
:1002A0001046531CDAB2054B185C844201D0002082
:1002B00010BD08780028F1D10120F9E724010020C1
:1002C000704772B600BFFEE70146002291F8210098
:1002D000022808D00420886300BF002081F8200095
:1002E00000BF012070470868006820F00E000B680E
:1002F00018600868006820F001000B68186091F829
:10030000403001209840CB6B5860012081F82100DB
:1003100000BF002081F8200000BF1046E2E7000087
:1003200070B50446002594F82100022803D004206B
:10033000A063012548E02068006820F00E002168D5
:1003400008602068006820F00100216808601F49EB
:100350002068884201D1012026E01C491431206820
:10036000884201D110201FE01849283120688842B6
:1003700001D1801518E015493C312068884201D12F
:10038000801411E0114950312068884202D14FF4A5
:10039000803009E00D4964312068884202D14FF471
:1003A000801001E04FF08070084908394860012052
:1003B00084F8210000BF002084F8200000BF606B9B
:1003C00010B12046616B8847284670BD0800024086
:1003D00070B5044600F0BCF906462546681C10B10D
:1003E00004480078054400BF00F0B2F9801BA84221
:1003F000FAD370BD4400002001460A1EA1F101039A
:1004000099B205D0002001E0421C90B24828FBDBE5
:10041000704700002DE9F8470346002294466EE13C
:100420004FF0010808FA02F4D1F8008008EA04004D
:10043000A0427DD1DFF8DCA2D1F80480A8EB0A0944
:10044000D0453AD014DCB8F1030F50D009DCB8F134
:10045000000F31D0B8F1010F1CD0B8F1020F49D113
:1004600020E0B8F1110F18D0B8F1120F42D11EE000
:10047000B9F5881F25D006DCB9F5803F20D0B9F545
:10048000801F37D11AE0B9F5001F18D0B9F5041F45
:1004900030D117E0D1F80CC02DE0D1F80C8008F174
:1004A000040C28E0D1F80C8008F1080C23E0D1F806
:1004B0000C8008F10C0C1EE000BF00BF00BF00BFA5
:1004C00000BF00BFD1F80880B8F1000F02D14FF093
:1004D000040C0BE0D1F80880B8F1010F03D14FF004
:1004E000080C1C6102E04FF0080C5C6103E04FF067
:1004F000000C00E000BF00BFFF2801D8984601E0D3
:1005000003F104084646FF2802D84FEA820803E0B8
:10051000A2F108084FEA88084746D6F800804FF055
:100520000F0909FA07F928EA09080CFA07F900E0A7
:1005300088E048EA0908C6F80080D1F8048008F08D
:100540008058B8F1805F7DD100BFDFF8CC81D8F84A
:10055000188048F00108DFF8C091C9F81880C84633
:10056000D8F8188008F00108CDF8008000BF00BF5F
:100570004FEAB9384FEA920958F829504FEA827881
:100580004FEA18794FF00F0808FA09F825EA08052C
:10059000DFF88881434502D14FF0000816E0DFF80C
:1005A0008081434502D14FF001080FE0DFF87481EC
:1005B000434502D14FF0020808E0DFF86C81434563
:1005C00002D14FF0030801E04FF004084FEA8279AE
:1005D0004FEA197908FA09F848EA0505DFF84C816D
:1005E0004FEA920948F82950D1F8048008F480189D
:1005F000B8F5801F0AD1DFF83881D8F8008048EAC2
:100600000008DFF82C91C9F8008009E0DFF82081AC
:10061000D8F8008028EA0008DFF81491C9F80080B3
:10062000D1F8048008F40018B8F5001F10D1DFF8E5
:10063000008108F10408D8F8008048EA0008DFF8D3
:10064000F09000E05AE009F10409C9F800800DE0DB
:10065000DFF8DC8008F10408D8F8008028EA0008F8
:10066000DFF8CC9009F10409C9F80080D1F80480C2
:1006700008F40038B8F5003F0ED1DFF8B480A8F1D7
:100680000408D8F8008048EA0008DFF8A490A9F12F
:100690000409C9F800800DE0DFF89480A8F104088F
:1006A000D8F8008028EA0008DFF88490A9F104094E
:1006B000C9F80080D1F8048008F48038B8F5803F8C
:1006C0000ED1DFF86C80A8F10808D8F8008048EA5D
:1006D0000008DFF85C90A9F10809C9F800800DE076
:1006E000DFF84C80A8F10808D8F8008028EA000854
:1006F000DFF83C90A9F10809C9F80080521CD1F834
:10070000008028FA02F8B8F1000F7FF489AEBDE846
:10071000F88700000000111000100240000801409E
:10072000000C01400010014000140140080001408D
:1007300008040140024693680B400BB1012000E021
:10074000002070470AB1016101E00B0403617047AA
:1007500001480068704700003C0000200348006822
:100760000349097808440149086070473C000020AB
:100770004400002010B50848006840F01000064909
:100780000860032000F0A8F80F2000F007F800F040
:100790002BF8002010BD00000020024070B5044678
:1007A0000E4800784FF47A71B1FBF0F00C490968FB
:1007B000B1FBF0F5284600F0F9FB08B1012070BD4F
:1007C000102C07D200222146501E00F047F80548A1
:1007D000046001E00120F2E70020F0E7440000207F
:1007E000480000204000002008B500BF1148806983
:1007F00040F001000F4988610846806900F001005F
:10080000009000BF00BF00BF0846C06940F08050A4
:10081000C8610846C06900F08050009000BF00BF6A
:1008200000BF0549486820F0E06040F00070486073
:1008300000BF08BD0010024000000140014608460C
:10084000002809DB00F01F0301229A4043099B00A6
:1008500003F1E023C3F8002100BF70472DE9F05FEA
:1008600080460D461646002702F00CF8074639462A
:100870002A46334601F00700C0F1070ABAF1040F17
:1008800002D94FF0040A01E0C0F1070AD14600F195
:10089000040ABAF1070F02D24FF0000A01E0A0F1FA
:1008A000030AD4464FF0010A0AFA09FAAAF1010A2A
:1008B0000AEA020A0AFA0CFA4FF0010B0BFA0CFBD7
:1008C000ABF1010B0BEA030B4AEA0B04214640464D
:1008D00001F0E0FFBDE8F09F00BF00F00702064B0B
:1008E00019684FF6FF031940044B0B4343EA0221FA
:1008F000014B196000BF70470CED00E00000FA05E5
:1009000070B504460D460CB9012070BD5A48006808
:1009100000F00700A8420ED25748006820F00700F8
:100920002843554908600846006800F00700A842BF
:1009300001D00120E9E7207800F0020002281DD153
:10094000207800F00400042805D14C48406840F4A9
:10095000E0604A494860207800F00800082805D186
:100960004648406840F46050444948604348406805
:1009700020F0F000A168084340494860207800F06A
:10098000010078B36068012806D13C48006800F493
:10099000003090B90120B8E76068022806D13748D6
:1009A000006800F0007040B90120AEE733480068ED
:1009B00000F0020008B90120A7E73048406820F0A5
:1009C0000300616808432D494860FFF7C1FE0646F1
:1009D00009E0FFF7BDFE801B41F28831884202D951
:1009E000032092E707E02548406800F00C006168AA
:1009F000B0EB810FEDD12048006800F00700A8425D
:100A00000ED91D48006820F0070028431A490860E5
:100A10000846006800F00700A84201D0012074E7F2
:100A2000207800F00400042807D11448406820F41E
:100A3000E060E168084311494860207800F0080050
:100A4000082808D10D48406820F46050216940EA28
:100A5000C1000A49486000F03FF808494968C1F3FD
:100A60000311074A515CC8400649086006480068FF
:100A7000FFF794FE002048E70020024000100240EB
:100A8000DA2B0008480000204000002001480068E0
:100A9000704700004800002000B5FFF7F7FF044949
:100AA0004968C1F30221034A515CC84000BD0000FF
:100AB00000100240EA2B000800B5FFF7E7FF0449E9
:100AC0004968C1F3C221034A515CC84000BD00001F
:100AD00000100240EA2B000870B50021002200241B
:100AE00000230020134D696801F00C05F5B1042DB9
:100AF00002D0082D19D101E00F4819E00F4DC1F3C4
:100B00008346AB5D01F4803555B10A4D6D68C5F380
:100B100040450B4E725D084D5D43B5FBF2F402E0BB
:100B2000084D03FB05F4204602E000BF024800BF69
:100B300000BF70BD0010024000127A00C82B0008F0
:100B4000D82B000800093D00F8B504460CB9012077
:100B5000F8BD207800F00100002878D0F8484068FF
:100B600000F00C0004280CD0F548406800F00C00A0
:100B7000082811D1F248406800F48030B0F5803F79
:100B80000AD1EF48006800F4003000285FD06068A8
:100B900000285CD10120DBE700BF6068B0F5803F32
:100BA00006D1E748006840F48030E549086028E055
:100BB000606858B9E248006820F48030E049086075
:100BC0000846006820F4802008601AE06068B0F5EC
:100BD000A02F0BD1DA48006840F48020D849086083
:100BE0000846006840F4803008600AE0D448006895
:100BF00020F48030D24908600846006820F4802044
:100C0000086000BF606888B1FFF7A2FD054606E0F6
:100C1000FFF79EFD401B642801D9032098E7C848D0
:100C2000006800F400300028F2D010E0FFF790FDDB
:100C3000054606E0FFF78CFD401B642801D9032020
:100C400086E7BF48006800F400300028F2D1207821
:100C500000F00200022857D1B948406800F00C00AB
:100C600050B1B748406800F00C00082818D1B448CB
:100C7000406800F4803098B9B148006800F0020084
:100C800020B12069012801D0012061E7AC4800684B
:100C900020F0F800616940EAC100A949086033E02A
:100CA0002069E8B10120A7490860FFF751FD05461A
:100CB00006E0FFF74DFD401B022801D9032047E75E
:100CC0009F48006800F002000028F2D09C480068AD
:100CD00020F0F800616940EAC1009949086013E01A
:100CE000002098490860FFF733FD054606E0FFF74E
:100CF0002FFD401B022801D9032029E790480068F6
:100D000000F002000028F2D1207800F00800082846
:100D10002DD1A069B8B101208B490860FFF718FDFB
:100D2000054606E0FFF714FD401B022801D9032009
:100D30000EE78348406A00F002000028F2D001204C
:100D400001F002FA13E000207F490860FFF700FD80
:100D5000054606E0FFF7FCFC401B022801D90320F2
:100D6000F6E67748406A00F002000028F2D12078C9
:100D700000F00400042873D100277148C06900F016
:100D8000805070B900BF6E48C06940F080506C4917
:100D9000C8610846C06900F08050009000BF00BFE5
:100DA00001276A48006800F48070B0B9674800689D
:100DB00040F4807065490860FFF7CAFC054606E00C
:100DC000FFF7C6FC401B642801D90320C0E65F483A
:100DD000006800F480700028F2D000BFE0680128AD
:100DE00006D15748006A40F001005549086227E0E3
:100DF000E06858B95248006A20F001005049086282
:100E00000846006A20F00400086219E0E06805283E
:100E10000BD14B48006A40F004004949086208467B
:100E2000006A40F0010008620AE04548006A20F0CC
:100E30000100434908620846006A20F00400086285
:100E400000BFE068A0B1FFF783FC054609E0FFF7AB
:100E50007FFC401B41F28831884202D9032077E6AB
:100E600022E03748006A00F002000028EFD012E0CC
:100E7000FFF76EFC054608E0FFF76AFC401B41F2F5
:100E80008831884201D9032062E62D48006A00F0CB
:100E900002000028F0D1012F05D12948C06920F0B7
:100EA00080502749C86100BFE069C8B32448406842
:100EB00000F00C00082860D0E069022848D100202A
:100EC00020490866FFF744FC054606E0FFF740FCB2
:100ED000401B022801D903203AE61948006800F0B7
:100EE00000700028F2D1206AB0F5803F07D1144885
:100EF000406820F40030A168084311494860D4E9F3
:100F0000080108430E49496821F4741108430C494B
:100F1000486001200B490866FFF71AFC054607E008
:100F20003DE0FFF715FC401B022801D903200FE626
:100F30000348006800F000700028F2D02FE00000A5
:100F40000010024000004242800442420070004013
:100F5000002014490866FFF7FBFB054606E0FFF793
:100F6000F7FB401B022801D90320F1E50E48006879
:100F700000F000700028F2D111E0E069012800D1F2
:100F8000E6E50948466806F48031206A814204D1CA
:100F900006F47011606A814201D00120D8E500207A
:100FA000D6E50000000042420010024070B5044641
:100FB0002546681EB0F1807F01D301200FE0681E36
:100FC0004FF0E02148610F214FF0FF3001F062FC4B
:100FD00000204FF0E021886107200861002070BDEB
:100FE0007047704730B502460B4600BF92F83C0090
:100FF000012801D1022030BD012082F83C0000BF51
:10100000022082F83D00106844681068816824F06E
:1010100070041868044310684460104D1068A842BA
:101020000BD01068B0F1804F07D00D4D1068A8426A
:1010300003D00C4D1068A84205D121F080015868FA
:10104000014310688160012082F83D0000BF00204C
:1010500082F83C0000BF00BFCDE70000002C01403B
:10106000000400400008004010B504460CB90120FF
:1010700010BD94F83D0028B9002084F83C002046BB
:1010800000F026F8022084F83D00211D206801F0C0
:10109000B1F8012084F8460000BF84F83E00012129
:1010A0003F200155402001554120015500BF00BFA0
:1010B000012084F842004320015544200155452079
:1010C000015500BF012084F83D000020D0E700005A
:1010D00038B5044616492068884216D100BF154825
:1010E000806940F40060134988610846806900F413
:1010F0000060009000BF00BF002211461920FFF7DA
:10110000ADFB1920FFF79AFB11E02068B0F1804F8A
:101110000DD100BF0748C06940F001000549C86112
:101120000846C06900F00100009000BF00BF38BD54
:10113000002C014000100240014691F83D000128BA
:1011400001D001207047022081F83D000868C06886
:1011500040F001000B68D860124B086898420BD031
:101160000868B0F1804F07D00F4B0868984203D051
:101170000E4B086898420CD10868806800F007029E
:10118000062A0CD00868006840F001000B6818605F
:1011900005E00868006840F001000B681860002056
:1011A000D0E70000002C014000040040000800408F
:1011B0002DE9F04104460D46002700BF94F83C009D
:1011C000012802D10220BDE8F081012084F83C0012
:1011D00000BF022084F83D002068866826F077066C
:1011E00026F47F46206886602868502833D00CDCBF
:1011F000202850D004DC00284BD0102851D149E0E1
:10120000302849D040284CD139E060282DD07028B2
:1012100007D0B0F5805F03D0B0F5005F41D10DE09D
:1012200041E0D5E902136A68206801F02EF82068D1
:10123000866846F077062068866034E0D5E90213B8
:101240006A68206801F021F82068806840F48040D6
:101250002168886027E0EA686968206801F0E6F89C
:101260005021206801F01CF81DE0EA6869682068D8
:1012700001F0EFF86021206801F012F813E0EA684D
:101280006968206801F0D2F84021206801F008F870
:1012900009E000BF00BF00BF2968206801F000F826
:1012A00001E0012700BF00BF012084F83D0000BF1E
:1012B000002084F83C0000BF384684E7704710B532
:1012C000044620680069C0F34000D8B12068C068B7
:1012D000C0F34000B0B16FF0020021680861012046
:1012E00020772068806900F0030018B12046FFF7DE
:1012F000E5FF05E0204600F0D5F8204600F089F92A
:101300000020207720680069C0F38000D8B12068F1
:10131000C068C0F38000B0B16FF0040021680861BC
:10132000022020772068806900F4407018B12046C0
:10133000FFF7C4FF05E0204600F0B4F8204600F0B7
:1013400068F90020207720680069C0F3C000D8B198
:101350002068C068C0F3C000B0B16FF00800216819
:101360000861042020772068C06900F0030018B1EC
:101370002046FFF7A3FF05E0204600F093F8204643
:1013800000F047F90020207720680069C0F30010C2
:10139000D8B12068C068C0F30010B0B16FF0100081
:1013A00021680861082020772068C06900F4407037
:1013B00018B12046FFF782FF05E0204600F072F8E2
:1013C000204600F026F9002020772068006900F010
:1013D000010058B12068C06800F0010030B16FF022
:1013E000010021680861204600F07EF9206800694C
:1013F000C0F3C01058B12068C068C0F3C01030B14D
:101400006FF08000216808612046FFF7E9FD206841
:101410000069C0F3801058B12068C068C0F3801024
:1014200030B16FF0400021680861204600F00EFAEC
:1014300020680069C0F3401058B12068C068C0F34C
:10144000401030B16FF02000216808612046FFF79E
:10145000C8FD10BD10B586B0044600200290039070
:10146000049005902068B0F1804F15D100BF0B4863
:10147000806940F00400094988610846806900F0ED
:101480000400019000BF00BF02200290039005906D
:1014900002A90348FEF7BEFF06B010BD00100240CF
:1014A0000008014070472DE9F04104460D461646FC
:1014B000002700BF94F83C00012802D10220BDE8BB
:1014C000F081012084F83C0000BF36B1042E1BD00F
:1014D000082E31D00C2E5ED145E02946206800F060
:1014E000E9FE2068806940F0080021688861206872
:1014F000806920F00400216888612068806929697A
:1015000008432168886148E02946206800F002FF0E
:101510002068806940F400602168886120688069E3
:1015200020F480602168886120688069296940EA28
:1015300001202168886130E02946206800F01EFF04
:101540002068C06940F008002168C8612068C0694F
:1015500020F004002168C8612068C0692969084337
:101560002168C86119E02946206800F03BFF206827
:10157000C06940F400602168C8612068C06920F437
:1015800080602168C8612068C069296940EA01203B
:101590002168C86101E0012700BF00BF00BF002033
:1015A00084F83C0000BF384689E710B504460CB902
:1015B000012010BD94F83D0028B9002084F83C00BB
:1015C000204600F025F8022084F83D00211D206807
:1015D00000F010FE012084F8460000BF84F83E00B1
:1015E00001213F200155402001554120015500BFF8
:1015F00000BF012084F842004320015544200155DA
:101600004520015500BF012084F83D000020D0E7AF
:101610007047704770B504460D4615B994F83E0002
:101620000BE0042D02D13F20005D06E0082D02D121
:101630004020005D01E04120005D012801D0012033
:1016400070BD1DB9022084F83E000EE0042D03D1C8
:1016500002213F20015508E0082D03D1022140203E
:10166000015502E00221412001550122294620684E
:1016700000F0FAFD19492068884201D1012000E0FC
:10168000002028B12068406C40F400402168486484
:101690001249206888420BD02068B0F1804F07D0F3
:1016A0000F492068884203D00E49206888420CD137
:1016B0002068806800F00706062E0CD020680068BD
:1016C00040F001002168086005E02068006840F0F3
:1016D0000100216808600020B2E70000002C0140F2
:1016E0000004004000080040484A016891427DD152
:1016F0004749097889B146490978491E444A117019
:101700001146097849B90121424A117042490978C4
:10171000424A11700021404A117041490988491C10
:101720003F4A11803F490988491C3E4A11803C4983
:1017300009883D4A1288914205DD01213B4A11701A
:101740000021374A118037490988092955DD0021D0
:10175000344A11800121364A11703649097829B37B
:101760003549097821B135490978491E334A117044
:1017700032490978FF2940D16321304A117030493C
:101780000978491E2E4A117011460978FF2934D173
:101790003B2111702B490978491E2A4A11701146C4
:1017A0000978FF2929D13B21117026E022490978C7
:1017B00021B122490978491C204A11701F49097832
:1017C00063291ADD00211D4A11701D490978491C41
:1017D0001B4A1170114609783B290EDD002111705A
:1017E00018490978491C174A117000E00DE01146AC
:1017F00009783B2901DD002111700A49097801F0BF
:10180000010111B10121104A11707047002C0140F3
:10181000390000200500002037000020380000209B
:10182000080000200A0000200E0000200000002018
:1018300001000020030000200200002030000020F2
:101840003100002032000020040000207047704763
:10185000704700002DE9F84F0446206805682068AD
:10186000C668206847694FF00009CA4605F00F09AD
:10187000B9F1000F0AD105F0200038B106F02000C0
:1018800020B1204600F05EFEBDE8F88FB9F1000FF0
:101890007BD007F0010018B906F49070002874D0CE
:1018A00005F0010030B106F4807018B1606C40F0B2
:1018B0000100606405F0040030B107F0010018B1C8
:1018C000606C40F00200606405F0020030B107F087
:1018D000010018B1606C40F00400606405F008007D
:1018E00048B106F0200010B907F0010018B1606C93
:1018F00040F008006064606C002845D005F02000CE
:1019000028B106F0200010B1204600F01BFE206830
:101910004069C0F3801A606C00F0080010B9BAF199
:10192000000F2CD0204600F0C7FD2068406900F071
:10193000400000B300BF00BF2168143151E8001F10
:1019400021F040002168143141E80002002AF3D15F
:1019500000BFE06B50B17748E16B4863E06BFEF786
:10196000DFFC88B1E06B416B88470DE02046FFF754
:101970006FFF09E009E02046FFF76AFF04E0204618
:10198000FFF766FF002060647EE7206B012877D1B7
:1019900005F01000002873D006F010000028FAD0DF
:1019A00000BF002000902068006800902068406818
:1019B000009000BF00BF2068406900F04000002890
:1019C0005FD0E06B006840681FFA80F8B8F1000F44
:1019D00055D0A08D404552DDA4F82E80E06B806983
:1019E000202843D000BF00BF21680C3151E8001F00
:1019F00021F4807021680C3141E80002002AF3D103
:101A000000BF00BF00BF2168143151E8001F21F062
:101A100001002168143141E80002002AF3D100BF1F
:101A200000BF00BF2168143151E8001F21F04000C1
:101A30002168143141E80002002AF3D100BF2020C0
:101A400084F842000020206300BF00BF21680C31F1
:101A500051E8001F21F0100021680C3141E800021C
:101A6000002AF3D100BFE06BFEF72EFC022060637A
:101A7000A08DE28D801A81B22046FFF7E8FE03E7D1
:101A800042E0A08DE18D401A1FFA80F8E08DD0B3BE
:101A9000B8F1000F37D000BF00BF21680C3151E80A
:101AA000001F21F4907021680C3141E80002002AE7
:101AB000F3D100BF00BF00BF2168143151E8001FFF
:101AC00021F001002168143141E80002002AF3D11D
:101AD00000BF202084F842000020206300BF00BF28
:101AE00021680C3151E8001F21F0100021680C31F1
:101AF00041E80002002AF3D100BF022060634146A2
:101B00002046FFF7A4FEBFE605F0800030B106F0E6
:101B1000800018B1204600F031FEB5E605F0400027
:101B200030B106F0400018B1204600F0FBFCABE6F7
:101B300000BFA9E6A524000810B504460CB9012091
:101B400010BDA06900B100E000BF94F8410028B9C1
:101B5000002084F84000204600F02AF8242084F871
:101B600041002068C06820F400502168C860204609
:101B700000F066FD2068006920F49040216808614B
:101B80002068406920F02A00216848612068C06808
:101B900040F400502168C86000206064202084F870
:101BA000410084F842000020606300BFC8E70000E5
:101BB00010B586B004460020029003900490059072
:101BC0001E492068884236D100BF1D48806940F414
:101BD00080401B4988610846806900F4804001907C
:101BE00000BF00BF00BF0846806940F00400886164
:101BF0000846806900F00400019000BF00BF48154E
:101C00000290022003900320059002A90D48FEF7E0
:101C100001FC4FF48060029000200390049002A920
:101C20000848FEF7F7FB002211462520FEF716FEB6
:101C30002520FEF703FE06B010BD0000003801406D
:101C4000001002400008014070B504460D461646DB
:101C500094F8420020280BD105B10EB9012070BDC7
:101C60000020206332462946204600F067FDF6E753
:101C70000220F4E710B504460B48844212D10B4809
:101C800000780B490B4A127888540A480078401CA7
:101C900008490870052008490870012203490248D4
:101CA000FFF7D2FF10BD0000DC000020360000204E
:101CB0002401002037000020390000202DE9F84FD2
:101CC00004460E46174699464FF0000A94F8410024
:101CD00020284AD106B117B90120BDE8F88F0020AD
:101CE0006064212084F84100FEF732FD8246A7841B
:101CF000E784A068B0F5805F04D1206910B90025A1
:101D0000B04602E035464FF000081BE05346002283
:101D100080212046CDF8009000F060FD08B103203E
:101D2000DBE745B9B8F80000C0F308002168486057
:101D300008F1020803E02878216848606D1CE08CF7
:101D4000401EE084E08C0028E0D153460022402170
:101D50002046CDF8009000F041FD08B10320BCE71B
:101D6000202084F841000020B7E70220B5E7704743
:101D700000BFFEE710B5044614B1012026490870E3
:101D80002548007850B34FF480712448FEF7D2FC08
:101D900020B9002020490870012010BD4FF40071C7
:101DA0001E48FEF7C7FC20B900201B49087002201E
:101DB000F3E704211A48FEF7BDFC20B900201649BC
:101DC00008700320E9E701211648FEF7B3FC01285B
:101DD0001FD10020104908700420DEE74FF4807105
:101DE0000E48FEF7A7FC012813D141020B48FEF76D
:101DF000A1FC01280DD104210948FEF79BFC012814
:101E000007D101210748FEF795FC10B901200249CE
:101E100008700020C1E700003A00002000100140D7
:101E2000001401400008014010B5012210210648AD
:101E3000FEF788FC0520FEF7DFFA00221021024899
:101E4000FEF780FC10BD0000000C014010B50446F8
:101E500004F001024FF480610848FEF773FCC4F3FC
:101E600040024FF400610548FEF76CFCC4F38002A9
:101E70004FF480510148FEF765FC10BD0010014091
:101E800070B505460E46002416E045FA04F000F051
:101E9000010208210B48FEF755FC002220210948C9
:101EA000FEF750FC0520FEF7A7FA01222021054885
:101EB000FEF748FC601CC4B2082CE6DB3046FFF796
:101EC000C5FF70BD000C014000B585B00020019039
:101ED00002900390049000BF4148806940F02000C8
:101EE0003F4988610846806900F02000009000BFEB
:101EF00000BF00BF0846806940F0100088610846B6
:101F0000806900F01000009000BF00BF00BF0846CD
:101F1000806940F0040088610846806900F0040090
:101F2000009000BF00BF00BF0846806940F0080075
:101F300088610846806900F00800009000BF00BF7B
:101F40000122FF212748FEF7FDFB00224FF4E0515C
:101F50002448FEF7F7FB002238212348FEF7F2FB66
:101F6000012211022048FEF7EDFB41F6FF400190EF
:101F700001200290002003900220049001A919483A
:101F8000FEF748FA01200190002002900220039001
:101F900001A91648FEF73EFA4FF440700190002068
:101FA00002900120039001A90E48FEF733FA0420A5
:101FB0000190002002900120039001A90C48FEF737
:101FC00029FA4FF49C7001900120029000200390A8
:101FD0000220049001A90448FEF71CFA05B000BDD8
:101FE0000010024000100140000C014000080140B8
:101FF0000014014000B587B00020039004900590C4
:1020000006900190029015481549086047204860E5
:1020100000211348816040F2E731C1600021016175
:1020200041618161FFF720F808B1FEF74AF94FF4EA
:102030008050039003A90A48FFF7BAF808B1FEF7E9
:1020400040F900200190029001A90548FEF7CAFF5F
:1020500008B1FEF736F907B000BD0000002C0140C2
:102060004C00002000B58DB0002009900A900B9024
:102070000C90079008901C216846FEF7A5F84FF0D9
:1020800080401F4908604720486000211C4881604B
:1020900044F61F61C160002101618161FEF7E4FF28
:1020A00008B1FEF70EF94FF48050099009A91448C1
:1020B000FFF77EF808B1FEF704F91148FFF775FA4B
:1020C00008B1FEF7FEF800200790089007A90C4819
:1020D000FEF788FF08B1FEF7F4F8602000900020BA
:1020E000019002900490042269460548FFF7DBF94D
:1020F00008B1FEF7E6F80248FFF7ACF90DB000BDF5
:102100009400002010B50B480B4908604FF4E130F3
:102110004860002108488160C16001610C21416173
:1021200000218161C161FFF707FD08B1FEF7C9F821
:1021300010BD000000380140DC00002000BFFEE7B9
:1021400000BFFEE77047000008B508490968C908E4
:102150004FF47A72B1FBF2F14143009100BF00BF2E
:1021600000994A1E00920029F9D108BD48000020BC
:10217000704710B5FEF7F2FA10BD00B58FB02821F8
:1021800005A8FEF721F814216846FEF71DF8012086
:10219000059000040690002007900120099002207D
:1021A0000C90C1030D914FF4E0110E9105A8FEF7BC
:1021B000CBFC08B1FEF785F80F20009002200190BB
:1021C000002002904FF480600390002004900221D0
:1021D0006846FEF795FB08B1FEF773F80FB000BD37
:1021E0007047000010B50248FFF769F810BD000005
:1021F0004C00002010B50268184B984208D0B0F18E
:10220000804F05D0164B984202D0164B984203D10E
:1022100022F070024B681A43104B984208D0B0F17C
:10222000804F05D00E4B984202D00E4B984203D1FE
:1022300022F44072CB681A4322F080034C6943EACF
:10224000040202608B68C3620B688362034B98428E
:1022500001D10B6903630123436110BD002C0140D0
:10226000000400400008004030B501F01F050124C3
:1022700004FA05F3046A9C430462046A01F01F0532
:1022800002FA05F52C43046230BD30B50C46816876
:1022900021F47F4142EA032525432943816030BD73
:1022A0000A46816821F0700142F0070319438160FA
:1022B0007047000030B5026A056A25F00105056225
:1022C0004368846924F0700424F003040D682C43EF
:1022D00022F002028D682A430D4DA84206D100BFAC
:1022E00022F00802CD682A4322F00402084DA842D9
:1022F00007D123F4807323F400734D692B438D6958
:102300002B43436084614D684563026230BD000029
:10231000002C014030B5026A056A25F010050562FF
:102320004368846924F4E04424F440740D6844EA6A
:10233000052422F020028D6842EA05120E4DA842C3
:1023400007D100BF22F08002CD6842EA051222F0D8
:102350004002094DA84209D123F4806323F40063AD
:102360004D6943EA85038D6943EA850343608461CF
:102370004D688563026230BD002C014030B5026AB1
:10238000056A25F4807505624368C46924F0700409
:1023900024F003040D682C4322F400728D6842EA95
:1023A00005220F4DA84207D100BF22F40062CD687C
:1023B00042EA052222F48062094DA84209D123F4A1
:1023C000805323F400534D6943EA05138D6943EAB2
:1023D00005134360C4614D68C563026230BD0000EF
:1023E000002C014030B5036A056A25F4805505626A
:1023F0004468C26922F4E04222F440720D6842EA65
:10240000052223F400538D6843EA0533064DA842A4
:1024100004D124F480444D6944EA85144460C261C7
:102420004D680564036230BD002C014030B50B4699
:102430001446026A056A25F001050562816921F0EA
:10244000F00141EA041122F00A021A43816102629A
:1024500030BD30B50B461446026A056A25F01005FA
:102460000562816921F4704141EA043122F0A00241
:1024700042EA03128161026230BD000010B50446D9
:1024800000224FF480710648FEF75CF92046FDF704
:102490009FFF012211020248FEF754F910BD00000F
:1024A000000C014070B505466C6A0020E085E084B0
:1024B0002046FFF7CDF970BD00BF00BF02680C32A7
:1024C00052E8002F22F4907102680C3242E80013A7
:1024D000002BF3D100BF00BF00BF0268143252E8E6
:1024E000002F22F001010268143242E80013002B91
:1024F000F3D100BF016B01290ED100BF00BF0268FC
:102500000C3252E8002F22F0100102680C3242E82F
:102510000013002BF3D100BF202180F842100021CE
:102520000163704710B504462068C06820F0400081
:102530002168C860202084F841002046FFF717FC7E
:10254000002010BDF8B5044694F84200222875D149
:10255000A068B0F5805F0CD1206950B90025A66A4B
:1025600020684068C0F308003080A06A801CA06228
:1025700015E0A56A0026A068B0F5805F03D0A068CA
:1025800028B9206918B920684068287004E02068DC
:10259000406800F07F002870A06A401CA062E08DB7
:1025A000401E80B2E085002846D12068C06820F037
:1025B00020002168C8602068C06820F4807021680D
:1025C000C8602068406920F001002168486120202F
:1025D00084F8420000206063206B012826D100208F
:1025E000206300BF00BF21680C3151E8001F21F0BB
:1025F000100021680C3141E80002002AF3D100BF2D
:102600002068006800F0100010280AD100BF0020E8
:10261000009020680068009020684068009000BF2B
:1026200000BFA18D2046FFF712F902E02046FFF718
:1026300021FB0020F8BD01E00020FBE70220F9E7C4
:1026400070B504462168096921F44051E2681143DC
:10265000226811612269A1681143626941EA020599
:102660002168C96841F20C62914329432268D16014
:102670002168496921F44071A269114322685161BE
:102680002D4A2168914202D1FEF716FA01E0FEF7C9
:1026900003FA00EBC00101EB001162689200B1FB8C
:1026A000F2F100EBC00202EB001263689B00B2FB88
:1026B000F3F26423B2FBF3F202EBC20303EB021268
:1026C000A1EB8201322202EB01116422B1FBF2F193
:1026D00001F0F00100EBC00202EB001263689B0006
:1026E000B2FBF3F26423B2FBF3F201EB021200EB54
:1026F000C00101EB001163689B00B1FBF3F100EB3B
:10270000C00303EB00136668B600B3FBF6F3642660
:10271000B3FBF6F303EBC30606EB0313A1EB830154
:10272000322303EB01116423B1FBF3F101F00F013C
:1027300011442268916070BD0038014010B5034615
:1027400099629A85DA8500205864222083F8420035
:10275000186928B11868C06840F480701C68E0608F
:102760001868406940F001001C6860611868C06822
:1027700040F020001C68E060002010BD014691F888
:102780004100212828D18868B0F5805F0BD1086905
:1027900048B90A6A1088C0F308000B685860086AD4
:1027A000801C086205E00B6A581C086218780B68E8
:1027B0005860C88C401E80B2C88458B90868C06888
:1027C00020F080000B68D8600868C06840F04000C6
:1027D0000B68D860002070470220FCE72DE9F0412B
:1027E00004460D4617469846069E34E0701C88B392
:1027F0002EB1FDF7ADFFA0EB0800B0422BD900BF12
:1028000000BF21680C3151E8001F21F4D07021680D
:102810000C3141E80002002AF3D100BF00BF00BF25
:102820002168143151E8001F21F0010021681431A2
:1028300041E80002002AF3D100BF202084F84100C3
:1028400084F8420000BF002084F8400000BF03204D
:10285000BDE8F081FFE7206800682840A84201D168
:10286000012000E00020B842C0D00020F0E70000C6
:1028700010B50248FEF7EEFF10BD0000DC0000209E
:1028800000BFFEE702480068C0F302207047000066
:102890000CED00E010B5002804DB0A07130E054A12
:1028A000135406E00A07140E034A00F00F031B1F1F
:1028B000D45410BD00E400E018ED00E0FDF75AFF2D
:1028C000FFF75BFCFFF700FBFFF794FBFFF7CAFB8A
:1028D000FFF718FC04219F48FEF79CFE9E48FEF778
:1028E0002BFC01229D499E48FFF7AEF930E19D483F
:1028F0000078002837D000209A4908709AA0FDF788
:10290000C9FC50B199480078022806D104231A4620
:1029100097A19348FFF7D2F919E097A0FDF7BAFC09
:1029200028B19748C0793038964908700FE096A0D2
:10293000FDF7B0FC58B19248007A30389049C97917
:10294000303901EB810100EB4100914908803220D0
:10295000FFF794FD002404E0002089490855601C1D
:10296000C4B2202CF8DB8B48007890B30020894952
:1029700008708448007860B387480078401C864916
:1029800008700846007800F0070008708348007857
:1029900050B1012082490870084600787E490978C4
:1029A00088407F49087009E080207D49087008460A
:1029B0000078794909780841794908700122FF2196
:1029C0007848FDF7BFFE0022754801787548FDF78D
:1029D000B9FE75480078002869D07448008800F571
:1029E000FA705C49096888630020FFF7C3F97049F1
:1029F000087008460078012806D0022815D0032860
:102A000041D0042851D126E03220FFF737FD63483A
:102A10000078401C614908700846007800F0010009
:102A2000087000206149088040E03220FFF726FD51
:102A300057480088C82804DA55480088401D544982
:102A400008805A480088642804DB584800886438A5
:102A5000564908802AE03220FFF710FD4C480088D4
:102A6000052804DD4A480088401F494908804F482E
:102A7000008840F26C71884204DC4C480088643065
:102A80004A49088012E03220FFF7F8FC3D48007800
:102A9000401C3C4908700846007800F001000870AE
:102AA0004FF4FA604149088000E000BF00BF414890
:102AB0000078E8B300203F4908703F480078401C88
:102AC0003D4908700846007800F0070008703B4850
:102AD0000978405C3A4908703A49394A1278885C6A
:102AE00035490978FFF7CCF9FFF79EF932480078AD
:102AF00007282DD12D48008800F5FA70642190FB3D
:102B0000F1F00A2190FBF1F201FB12002B49C87190
:102B10002648008800F5FA704FF47A7190FBF1F0C6
:102B20000A2190FBF1F201FB12002449887100E0B8
:102B30000EE01E48008800F5FA7042F2107190FB1A
:102B4000F1F00A2190FBF1F201FB12001B494871E0
:102B5000CDE60000940000204C000020360000204C
:102B6000DC00002005000020415400003800002057
:102B70004F4B0D0A0000000041542B52554E3D00B2
:102B8000240100200200002041542B4741503D0009
:102B90000E00002000000020100000200300002094
:102BA000110000200010014001000020340000202E
:102BB0000C0000200400002012000020160000205D
:102BC000130000201E000020020304050607080968
:102BD0000A0B0C0D0E0F1010010200000000000087
:102BE00000000102030406070809000000000102BA
:102BF00003040000142C0008000000204C0000001A
:102C000028010008602C00084C0000205C07000030
:102C10004401000800000100000000000000000066
:102C2000000032000000000000001010101010061C
:102C30000708FC60DAF266B6BEE0FEF6EE3E9C7A6D
:102C40009E8E020000000000000000000005010050
:102C50000000000010000000010000000024F4004B
:04000005080000ED02
:00000001FF
