:020000040800F2
:1000000030070020890100085F1200084B0F00082C
:100010005D1200088B020008D913000800000000E0
:100020000000000000000000000000006312000853
:100030008D0200080000000061120008651200082F
:10004000A3010008A3010008A3010008A301000800
:10005000A3010008A3010008A3010008A3010008F0
:10006000A3010008A3010008A3010008A3010008E0
:10007000A3010008A3010008A3010008A3010008D0
:10008000A3010008A3010008A3010008A3010008C0
:10009000A3010008A3010008A3010008A3010008B0
:1000A000A3010008C9120008A3010008A301000869
:1000B000A3010008A3010008A3010008A301000890
:1000C000A3010008A3010008A3010008A301000880
:1000D000A3010008A3010008A3010008A301000870
:1000E000A3010008A3010008A301000800F002F822
:1000F00000F03AF80AA090E8000C82448344AAF188
:100100000107DA4501D100F02FF8AFF2090EBAE885
:100110000F0013F0010F18BFFB1A43F0010318473B
:100120002414000044140000103A24BF78C878C199
:10013000FAD8520724BF30C830C144BF04680C60ED
:10014000704700000023002400250026103A28BF35
:1001500078C1FBD8520728BF30C148BF0B60704739
:100160001FB51FBD10B510BD00F058F81146FFF7C0
:10017000F7FF01F043F900F076F803B4FFF7F2FF60
:1001800003BC00F07BF8000009488047094800479D
:10019000FEE7FEE7FEE7FEE7FEE7FEE7FEE7FEE737
:1001A000FEE7FEE704480549054A064B7047000094
:1001B000C7120008ED0000083001002030070020C1
:1001C00030030020300300204FF0000200B513463A
:1001D00094469646203922BFA0E80C50A0E80C5067
:1001E000B1F12001BFF4F7AF090728BFA0E80C5018
:1001F00048BF0CC05DF804EB890028BF40F8042B11
:1002000008BF704748BF20F8022B11F0804F18BF7D
:1002100000F8012B7047704770477047754600F033
:1002200029F8AE4605006946534620F0070085468A
:1002300018B020B5FFF7B6FFBDE820404FF000062C
:100240004FF000074FF000084FF0000B21F00701BE
:10025000AC46ACE8C009ACE8C009ACE8C009ACE801
:10026000C0098D4670470446AFF300802046FFF773
:1002700084FF000000487047D0000020014918208A
:10028000ABBEFEE7260002007047FEE770470000A5
:1002900070B5044600F010F90546601C02D0044811
:1002A0000078044400F008F9401BA042FAD370BD66
:1002B00030000020002804D00020401C80B24828D4
:1002C000FBD370472DE9F84FDFF8B8910024A9F16E
:1002D000040B23460F2709F1040AABF1040EC9E011
:1002E0000125A5402A40AA427DD1674ED1F804C01D
:1002F000ACEB0608B44532D014DCBCF1030F3AD0A5
:1003000009DCBCF1000F2AD0BCF1010F1CD0BCF1FC
:10031000020F31D11DE0BCF1110F17D0BCF1120F4B
:100320002AD119E0B8F5881F19D006DCB8F5803F4E
:1003300015D0B8F5801F1FD111E0B8F5001F0ED001
:10034000B8F5041F18D10AE0CB6815E0CB681B1D77
:1003500012E0CB6808330FE0CB680C330CE08B68FD
:100360002BB1012B4FF0080303D0456104E00423B7
:1003700002E0056100E00023FF2A01D8064601E003
:1003800000F104064FEA840501D9A5F12005D6F84D
:10039000008007FA05FC28EA0C0803FA05F548EA8C
:1003A0000508C6F800804D68ED0062D5374DAE698E
:1003B00046F00106AE61AD6924F0030605F00105C3
:1003C0000095334D06EB050CDCF80850A607360FF8
:1003D00007FA06F825EA0805DFF8B880404503D19A
:1003E0004FF0000817E044E0DFF8AC80404502D150
:1003F0004FF001080FE0DFF8A480404502D14FF034
:10040000020808E0DFF89880404502D14FF0030869
:1004100001E04FF0040808FA06F848EA0508CCF8AD
:1004200008804D68D9F80060ED024D4601D51643AD
:1004300000E096432E604D68DAF80060AD02554644
:1004400001D5164300E096432E604D68DBF800604E
:10045000AD035D4601D5164300E096432E604D681E
:10046000DEF80060ED03754601D5164300E09643C3
:100470002E60641C0D682A46E5407FF431AFBDE86C
:10048000F88F000008040140000011100010024025
:100490000000014000080140000C01400010014034
:1004A000001401408068084000D0012070470AB164
:1004B000016170470904FBE701488068704700004C
:1004C0003000002002488168027811448160704742
:1004D00030000020074810B5016841F010010160AC
:1004E000032000F075F80F2000F006F800F024F863
:1004F000002010BD0020024070B50D4D04464FF4A1
:100500007A712878B1FBF0F00A490968B1FBF0F084
:1005100000F0BCFA48B9102C07D200222146501E28
:1005200000F036F800206C6070BD012070BD000046
:10053000300000203C0000200C4808B5816941F0E3
:1005400001018161816901F001010091C16941F0FE
:100550008051C161C06900F080500090044841683A
:1005600021F0E06141F00071416008BD00100240DF
:1005700000000140002809DB00F01F02012191402A
:100580004009800000F1E020C0F800117047000031
:10059000F0B40E4B1B680C46C3F30223C3F10705EE
:1005A000042D00D90425191D072901D2002300E0DC
:1005B000DB1E012606FA05F1491E214099409E40A6
:1005C000761E16403143F0BC00F007BF0CED00E092
:1005D000064900F0070208684FF6FF03184040EA9A
:1005E0000220034A10430860704700000CED00E051
:1005F0000000FA052DE9F0470F46050061D0434E93
:10060000306800F00700B84209D2306820F00700D7
:1006100038433060306800F00700B84251D1286894
:100620003B4C810712D5400703D5606840F4E06079
:1006300060602878000703D5606840F4605060600F
:100640006068A96820F0F000084360602878C0075F
:1006500028D06868012810D02168022810D08907A6
:1006600000292EDA616821F0030101436160FFF780
:1006700023FF804641F288390DE021688903EFE7C6
:100680008901EDE7FFF718FFA0EB0801494502D902
:100690000320BDE8F0876068696800F00C00B0EBEB
:1006A000810FEFD1306800F00700B8420BD93068F5
:1006B00020F0070038433060306800F00700B8428F
:1006C00001D00120E5E72878400705D56068E96892
:1006D00020F4E060084360602878000706D5606871
:1006E000296920F4605040EAC100606000F018F809
:1006F0006168084AC1F30311515CC84006490860AB
:1007000006480068FFF7F8FE0020C2E7002002401C
:1007100000100240321500083C0000203400002088
:100720000E4A51680E4801F00C03042B11D0082B1F
:100730000FD10C48C1F38343C903C05C0AD551688B
:10074000084AC1F34041921E515C054A5043B0FB38
:10075000F1F0704704494843704700000010024020
:1007600000127A002215000800093D002DE9F84F1B
:10077000040070D02078C04DC00749D06868C0F32D
:100780008100012807D06868C0F38100022809D1E0
:100790006868C00306D52868800339D560680028DA
:1007A000E7D035E06068B0F5803F0BD010B1B0F510
:1007B000A02F11D0286820F480302860286820F409
:1007C000802002E0286840F480302860606890B1A2
:1007D000FFF772FE06460AE0286840F48020286091
:1007E000F0E700BFFFF768FE801B642873D8286815
:1007F0008003F7D50CE0FFF75FFE064605E000BF7B
:10080000FFF75AFE801B6428F0D828688003F7D4CD
:1008100020789A4E80074FF001094FF0000839D533
:10082000686810F00C0F07D06868C0F381000228D8
:1008300009D16868C00306D42868800714D52069E8
:10084000012808D110E02069B0B1C6F80090FFF788
:1008500033FE074605E00AE1FFF72EFEC01B022823
:10086000C4D828688007F7D52868616920F0F800A7
:1008700040EAC10028600DE0C6F80080FFF71CFECA
:10088000074604E0FFF718FEC01B022823D828689B
:100890008007F7D4207800072CD57948A169D9B111
:1008A000C0F80090FFF708FE074604E0FFF704FEDB
:1008B000C01B02280FD8686A8007F7D571484FF42B
:1008C000FA510068B0FBF1F0009000BF0098411EA3
:1008D0000091FAD20EE080E0C0F80080FFF7ECFD56
:1008E000074604E0FFF7E8FDC01B022875D8686AD8
:1008F0008007F7D42078400760D5E8690027C0005A
:1009000008D4E86940F08050E861E869012700F008
:10091000805000905C480168C90513D40168834683
:1009200041F480710160FFF7C7FD824606E000BF19
:10093000FFF7C2FDA0EB0A0064284ED8DBF80000E8
:10094000C005F5D5E06801280AD008B1052813D004
:10095000286A20F001002862286A20F0040002E0E2
:10096000286A40F001002862E06841F2883B98B1B3
:10097000FFF7A2FD82460BE0286A40F004002862DF
:10098000EEE700BFFFF798FDA0EB0A0159455AD8E2
:10099000286A8007F6D50CE0FFF78EFD824605E059
:1009A000FFF78AFDA0EB0A0159454CD8286A800759
:1009B000F6D41FB1E86920F08050E861E06988B39F
:1009C0006968C1F38101022944D00228C6F8608019
:1009D00004D0FFF771FD044638E034E0FFF76CFD0A
:1009E000074604E0FFF768FDC01B02282BD82868E3
:1009F0008001F7D4206AB0F5803F05D16868A1680E
:100A000020F4003008436860D4E9080108436968AD
:100A100021F4741108436860C6F86090FFF74CFD3C
:100A2000044606E025E000BFFFF746FD001B022854
:100A300009D828688001F7D51BE000BFFFF73CFD0F
:100A4000001B022802D90320BDE8F88F2868800126
:100A5000F4D40EE00128F7D06868226A00F48031EF
:100A6000914204D1616A00F47010884201D00120E3
:100A7000EAE70020E8E700000010024000004242E0
:100A8000800442423C0000200070004010B5401E2F
:100A9000B0F1807F01D3012010BD4FF0E0246061F0
:100AA0000F21601700F099FC0020A0610720206151
:100AB000002010BD7047704770B590F83C20012AA7
:100AC00026D0012480F83C40022280F83D200368B3
:100AD0005A689D6822F070060A6832435A600D4BCE
:100AE00002689A4208D0B2F1804F05D00A4B9A4270
:100AF00002D00A4B9A4204D1496825F08003194379
:100B0000916080F83D40002180F83C10084670BD9F
:100B1000022070BD002C014000040040000800408D
:100B200010B5040003D094F83D0010B107E0012097
:100B300010BD002084F83C00204600F01FF8022081
:100B400084F83D00211D206800F0C4FB012084F8DA
:100B5000460084F83E0084F83F0084F8400084F8A2
:100B6000410084F8420084F8430084F8440084F88B
:100B7000450084F83D00002010BD000008B5114A72
:100B800001681148914211D1816941F4006181618C
:100B90008069002200F40060009011461920FFF7E0
:100BA000F7FCBDE808401920FFF7E4BCB1F1804F25
:100BB00007D1C16941F00101C161C06900F00100C4
:100BC000009008BD002C01400010024090F83D103C
:100BD000012901D001207047022180F83D100168F1
:100BE000CA6842F00102CA6000680B49884208D016
:100BF000B0F1804F05D00949884202D008498842A7
:100C000004D1816801F00701062903D0016841F091
:100C10000101016000207047002C014000040040E9
:100C20000008004070B5044690F83C0000250128FB
:100C300017D0012684F83C60022084F83D0020682B
:100C4000826822F0770222F47F428260086850288E
:100C500038D00DDC20284FD005DC90B3102811D1FE
:100C60004AE0022070BD302846D040280AD13BE03F
:100C700060282FD070280DD0B0F5805F03D0B0F57C
:100C8000005F12D0012584F83D60002084F83C000C
:100C9000284670BDCB68D1E90121206800F050FBE7
:100CA0002068816841F0770109E0CB68D1E9012132
:100CB000206800F045FB2068816841F48041816034
:100CC000E1E719E0CA684968206800F04BFB502151
:100CD000206806E0CA684968206800F054FB60217B
:100CE000206800F037FBCEE7CA684968206800F04A
:100CF00039FB40212068F4E7226801461046F0E7FE
:100D0000704770B50446006801694FF00005C9439B
:100D1000890715D4C168C943890711D4E91E016147
:100D200001202077206880698007204602D0FFF7E5
:100D3000E7FF04E000F098F8204600F096F82577E9
:100D400020680169C943490717D4C168C9434907E5
:100D500013D46FF0040101610220207720688069BC
:100D600010F4407F204602D0FFF7CAFF04E000F0F5
:100D70007BF8204600F079F8257720680169C9439F
:100D8000090716D4C168C943090712D46FF00801D6
:100D90000161042020772068C0698007204602D0C6
:100DA000FFF7AEFF04E000F05FF8204600F05DF8CA
:100DB000257720680169C943C90617D4C168C943AA
:100DC000C90613D46FF01001016108202077206854
:100DD000C06910F4407F204602D0FFF791FF04E085
:100DE00000F042F8204600F040F8257720680169BD
:100DF000C943C90708D1C168C943C90704D1891EBD
:100E00000161204600F032F820680169C9430906F3
:100E100009D4C168C943090605D46FF08001016196
:100E20002046FFF747FE20680169C943490609D4F7
:100E3000C168C943490605D46FF0400101612046ED
:100E400000F082F820680169C94389060BD4C168A3
:100E5000C943890607D46FF0200101612046BDE82F
:100E60007040FFF728BE70BD704770472DE9F04312
:100E70000068334988425CD1324801270022C18989
:100E8000491C8BB2C381018A491C89B20182448A00
:100E9000A34201D90770C281092946D90282294B90
:100EA0004770284990F803C09E78DD7A1C7B143186
:100EB0009B7A4FF011084FF01009BCF1000F1BD0C6
:100EC0000EB15B1E8372827A322A34D0FF2A2CD173
:100ED0006322827281F8029081F805906D1EE9B25A
:100EE000C172FF2921D13B21641EE2B2C17202739B
:100EF000FF2A1AD1017318E00EB15B1C8372837A4A
:100F0000322B18D0632B10D9827281F8029081F8AD
:100F100005906D1CE9B2C1723B2906D9641CE1B28F
:100F2000C27201733B2900D90273017CC90700D04A
:100F30000771BDE8F08381F8028081F80580F4E74D
:100F4000002C0140000000207047FEE72DE9F0472B
:100F500001256F02DFF88C80DFF88C90234C244E43
:100F6000290208B1657301E0607B10B33046FFF7DA
:100F700099FA002580B139463046FFF793FA78B1E7
:100F800004214046FFF78EFA68B101214846FFF779
:100F900089FA01280AD023E065730120BDE8F087B3
:100FA00065730220FAE765730320F7E76573042091
:100FB000F4E73046FFF776FA012811D1394630467A
:100FC000FFF770FA01280BD104214046FFF76AFAB7
:100FD000012805D101214846FFF764FA00B965737D
:100FE0000020DBE700140140000801400000002061
:100FF0000010014010B5084C012210212046FFF7D7
:1010000056FA0520FFF756F920460022BDE81040A9
:101010001021FFF74CBA0000000C014070B50B4DD9
:10102000044600F001024FF480612846FFF73FFAC2
:10103000C4F34002E9142846FFF739FAC4F38002EA
:10104000A9142846BDE87040FFF731BA00100140EE
:101050002DE9F041104E0F460546002425FA04F014
:1010600000F0010208213046FFF721FA002220217A
:101070003046FFF71CFA0520FFF71CF9012220215A
:101080003046FFF714FA641CE4B2082CE6D3384665
:10109000BDE8F041FFF7C2BF000C01402DE9F0416F
:1010A00086B0002435480094019402940394816929
:1010B00041F020018161816901F020010491816981
:1010C00041F010018161816901F010010491816991
:1010D00041F004018161816901F004010491816999
:1010E00041F0080181618069254F00F008000490FB
:1010F0000122FF213846FFF7DAF900224FF4E051D0
:101100003846FFF7D4F9DFF87C80002238214046CA
:10111000FFF7CDF9012211024046FFF7C8F941F669
:10112000FF4001250226CDE90005CDE902466946CA
:101130003846FFF7C7F8CDE90054694612480296D1
:10114000FFF7C0F84FF440708DE83100694638462B
:10115000FFF7B8F804208DE8310069460B48FFF727
:10116000B1F84FF49C70CDE90005CDE9024669461F
:101170004046FFF7A7F806B0BDE8F0810010024036
:1011800000100140000C0140000801400014014023
:1011900010B586B00024174800940194029403947B
:1011A00004941349059401604721C0E9011440F2F9
:1011B000E731C0E9031444618461FFF7B1FC08B171
:1011C00072B6FEE74FF48050009069460948FFF779
:1011D00029FD08B172B6FEE7049404A905480594F8
:1011E000FFF76AFC002801D072B6FEE706B010BD1A
:1011F000002C01404000002010B586B000241648A5
:10120000009401940294039404944FF08041059457
:1012100001604721C0E901144FF6FF71C0E90314D2
:101220008461FFF77DFC08B172B6FEE74FF4805091
:10123000009069460848FFF7F5FC08B172B6FEE772
:10124000049404A904480594FFF736FC002801D053
:1012500072B6FEE706B010BD88000020FEE7FEE78C
:1012600070477047FFF72EB930B58FB02821684618
:10127000FEF7AAFF14210AA8FEF7A6FF0121080421
:10128000CDE900100024029402250491CDE9075015
:101290004FF4E01009906846FFF768FA08B172B69B
:1012A000FEE70F20CDE90A054FF48060CDE90C4040
:1012B00002210AA80E94FFF79DF9002801D072B60A
:1012C000FEE70FB030BD70470148FFF71ABD0000C0
:1012D00040000020F0B50268164B174C174D4FF038
:1012E0008047984205D0B84203D0A04201D0A8421E
:1012F00003D122F070064A683243984205D0B842C2
:1013000003D0A04201D0A84203D122F44074CA689D
:1013100022434C6922F08002224302608A68C26242
:101320000A688262984201D1096901630121416121
:10133000F0BD0000002C0140000400400008004007
:1013400010B5846842EA032224F47F440A4322430E
:10135000826010BD826822F070020A4342F00701E9
:101360008160704710B5036A046A24F001040462C6
:10137000846924F0F00444EA021423F00A020A43C8
:101380008461026210BD10B5036A046A24F010047F
:101390000462846923F0A00324F4704444EA023216
:1013A00043EA01118261016210BD000070B5094D70
:1013B00006464FF48074002221462846FFF777F84E
:1013C0003046FEF765FF21462846BDE87040012201
:1013D000FFF76DB8000C0140FEE70907090E002871
:1013E00004DB00F1E02080F80014704700F00F00EB
:1013F00000F1E02080F8141D70470000FFF76AF844
:10140000FFF732FFFFF74AFEFFF7C2FEFFF7F4FED9
:101410004048FFF7DBFB404C002604F11405207820
:10142000D0B12670A078B8B1A079401C00F00700B8
:10143000A071E17811B10121814001E08021C1401A
:10144000364FE1710122FF213846FFF730F80022C4
:10145000E1793846FFF72BF8607828B30020FFF7D2
:1014600075FD6071012806D002280DD003281CD01C
:10147000042822D110E03220FFF798FFE078401CCA
:1014800000F00100E07018E03220FFF78FFF608A63
:10149000C82812D2401D06E03220FFF787FF608A7D
:1014A00005280AD9401F608207E03220FFF77EFF3F
:1014B000A078401C00F00100A07020790028AED078
:1014C0002671207A144A401C00F007012172685CE2
:1014D0001C326072105CFFF7BBFDFFF78BFD207ABA
:1014E00007289CD1217B0A20B1FBF0F200FB1211EE
:1014F0002A706970E27AB2FBF0F1E97000FB112109
:101500002971A27AB2FBF0F100FB1120A971E871F8
:1015100085E700004000002000000020001001408E
:10152000010202030405060708090A0B0C0D0E0F41
:101530001010000000000000000001020304060774
:1015400008090000641500080000002040000000A9
:1015500028010008A415000840000020F006000043
:10156000440100080000010000000000000000002D
:1015700000010000000032000102100405100708FD
:10158000FC60DAF266B6BEE0FEF6EE3E9C7A9E8E17
:101590000200000001000000100000000000000038
:0415A0000024F4002F
:04000005080000ED02
:00000001FF
